:1000000012C01FC01EC01DC01CC01BC01AC019C01A
:1000100018C017C016C042C114C013C012C011C00E
:1000200010C00FC00EC011241FBECFEDCDBF20E009
:10003000A0E6B0E001C01D92A536B207E1F702D0FC
:100040007DC1DECF34D04AE06EE182E363D07894A4
:100050008091630090916400892B51F485B780658D
:1000600085BF85B7806285BF889585B78F7D85BF41
:1000700080E090E056D00CD1882311F080E097D03A
:10008000209163003091640081E020FD07C08F5F04
:10009000369527958131C9F7232B09F088D0109226
:1000A00064001092630080E090E03BD0D1CF1092CA
:1000B00064001092630084E6809360008093610086
:1000C00080936200B898C098B998C198BA98C298BD
:1000D000BB98C398BC98C498BD98C598889A909AC4
:1000E000899A919A8C9810BC8BB780628BBF80B52F
:1000F000816080BD80B5826080BD80B5846080BD38
:1001000080B5886080BD80B5806180BD80B580622B
:1001100080BD089580936100609360004093620009
:1001200008950F931F93CF93DF939C0190E0A90153
:1001300040725527B901607177278901087011272E
:10014000D901A470BB27E901C270DD2721703327D4
:1001500080916100981730F5B09903C021153105E1
:10016000C9F0B19902C02097A9F0B29902C01097C6
:1001700089F0B39903C00115110561F0B49903C06A
:100180006115710539F0B59903C04115510511F09C
:100190009F5F01C090E0E9EFF0E03197F1F700C018
:1001A0000000D6CFDF91CF911F910F910895919AC2
:1001B000909890E020916000921740F4E9EFF0E011
:1001C0003197F1F700C000009F5FF4CF90E02091DD
:1001D0006200492F50E030E0220F331F42175307CF
:1001E00044F4E9EFF0E03197F1F700C000009F5FC1
:1001F000EECF90E0981751F1919860E02091620065
:10020000462F50E030E0220F331F4217530744F4CB
:10021000E9EFF0E03197F1F700C000006F5FEECF3B
:10022000919A60E020916200462F50E030E0220F6A
:10023000331F4217530744F4E9EFF0E03197F1F729
:1002400000C000006F5FEECF9F5FD4CF909A40E078
:1002500080916200242F30E090E0880F991F2817CA
:10026000390744F489EF90E00197F1F700C00000EE
:100270004F5FEECF80E090916000891740F4E9EF86
:10028000F0E03197F1F700C000008F5FF4CF0895E0
:1002900080B38295817091E0892708951F920F9213
:1002A0000FB60F9211248F939F93B09909C080913C
:1002B0006300909164008160909364008093630078
:1002C000B19909C08091630090916400826090931D
:1002D000640080936300B29909C08091630090919B
:1002E000640084609093640080936300B39909C0B4
:1002F0008091630090916400886090936400809383
:100300006300B49909C0809163009091640080619A
:100310009093640080936300B59909C08091630055
:1003200090916400806290936400809363009F9139
:100330008F910F900FBE0F901F901895F894FFCFDC
:00000001FF
