:1000000012C01FC01EC01DC01CC01BC01AC019C01A
:1000100018C017C016C02FC114C013C012C011C021
:1000200010C00FC00EC011241FBECFEDCDBF20E009
:10003000A0E6B0E001C01D92A536B207E1F702D0FC
:100040006AC1DECF34D04AE06EE182E363D07894B7
:100050008091630090916400892B51F485B780658D
:1000600085BF85B7806285BF889585B78F7D85BF41
:1000700080E090E056D0F9D0882311F080E090D055
:10008000209163003091640081E020FD07C08F5F04
:10009000369527958131C9F7232B09F081D010922D
:1000A00064001092630080E090E03BD0D1CF1092CA
:1000B00064001092630084E6809360008093610086
:1000C00080936200B898C09AB998C19ABA98C29AB7
:1000D000BB98C39ABC98C49ABD98C59A889A909ABE
:1000E000899A919A8C9810BC8BB780628BBF80B52F
:1000F000816080BD80B5826080BD80B5846080BD38
:1001000080B5886080BD80B5806180BD80B580622B
:1001100080BD089580936100609360004093620009
:100120000895CF93DF939C0190E0A9014072552779
:10013000B90160717727F901E870FF27D901A47030
:10014000BB27E901C270DD27217033278091610050
:10015000981718F5B09903C021153105C1F0B19970
:1001600002C02097A1F0B29902C0109781F0B39914
:1001700002C0309761F0B49903C06115710539F080
:10018000B59903C04115510511F09F5F01C090E082
:1001900086EA8A95F1F700C0D9CFDF91CF91089513
:1001A000919A909890E020916000921730F426EA9E
:1001B0002A95F1F700C09F5FF6CF90E02091620092
:1001C000492F50E030E0220F331F4217530734F419
:1001D00026EA2A95F1F700C09F5FF0CF90E09817CC
:1001E00031F1919860E020916200462F50E030E0BC
:1001F000220F331F4217530734F426EA2A95F1F7EA
:1002000000C06F5FF0CF919A60E020916200462FAE
:1002100050E030E0220F331F4217530734F426EA30
:100220002A95F1F700C06F5FF0CF9F5FD8CF909A0B
:1002300040E080916200242F30E090E0880F991F09
:100240002817390734F486EA8A95F1F700C04F5F22
:10025000F0CF80E090916000891730F496EA9A958B
:10026000F1F700C08F5FF6CF089580B3829581705B
:1002700091E0892708951F920F920FB60F921124D3
:100280008F939F93B09909C080916300909164000F
:1002900081609093640080936300B19909C080915C
:1002A0006300909164008260909364008093630087
:1002B000B29909C08091630090916400846090932A
:1002C000640080936300B39909C0809163009091AA
:1002D000640088609093640080936300B49909C0BF
:1002E000809163009091640080619093640080939A
:1002F0006300B59909C080916300909164008062A9
:1003000090936400809363009F918F910F900FBE34
:0A0310000F901F901895F894FFCF8E
:00000001FF
