:10000000C9C2D8C26AC3D6C290C5D4C2D3C2D2C2F2
:10001000D1C2D0C27EC8CEC2CDC2CCC2CBC200003B
:100020000A011A012B013F014F016401780191017E
:10003000A901C201DB01F701180239025A02830249
:10004000A302CC02F502220353038503BA03F30390
:1000500031046E04B404F90447059505EB05450623
:10006000A3060A077407E7075E08DD086409F309B9
:100070008B0A2B0BD70B8B0C4B0D140EE90ECE0FEE
:10008000C010BE11CC12EB131A155A16AE17161962
:10009000931A281CD21D991F0000F600E700DB0010
:1000A000CD00C300B700AD00A30099009100890006
:1000B00082007A0073006C00650060005B005600EF
:1000C00051004C004800440040003D00390036001B
:1000D000330030002D002B002800260024002200D1
:1000E00020001E001C001B0019001800160015003F
:1000F000140013001200110010000F000E000D007C
:100100000C000C000B000A000A000900090008009E
:10011000080000004100450049004E005200570011
:100120005C00620068006E0074007B0083008B003E
:1001300093009D00A500AF00B900C400D000DC0012
:10014000E900F70006011501260137014A015D01AA
:10015000720188019F01B801D201EE010B022A024F
:100160004B026E029302BA02E40210033F037003D3
:10017000A403DC03170455049704DD042705750563
:10018000C80520067D06E0064807B70700001103F2
:1001900022063209400C4D0F57125E156218631B80
:1001A0005F1E5621492435271C2AFC2CD52FA73247
:1001B00071353338EC3A9C3D4340DF427245F94794
:1001C000764AE74C4C4FA551F15331566358875A44
:1001D0009E5CA65EA0608B6266643266EF679B6978
:1001E000376BC26C3D6EA76FFF7046727C739F7455
:1001F000B175B0769E7778784179F679997A287BCF
:10020000A57B0F7C657CA97CD97CF67C007DF67C87
:10021000D97CA97C657C0F7CA57B287B997AF679B3
:10022000417978789E77B076B1759F747C73467209
:10023000FF70A76F3D6EC26C376B9B69EF673266CC
:1002400066648B62A060A65E9E5C875A63583156D6
:10025000F153A5514C4FE74C764AF9477245DF42BE
:1002600043409C3DEC3A33387135A732D52FFC2CF6
:100270001C2A3527492456215F1E631B62185E1510
:1002800057124D0F400C32092206110300000000E6
:10029000F401E803DC05D007C409B80BAC0DA00FCE
:1002A000941188137C1570176419581B4C1D401F3E
:1002B000342128231C2510270429F82AEC2CE02EB1
:1002C000D430C832BC34B036A438983A8C3C803E26
:1002D000744068425C4450464448384A2C4C204E96
:1002E00014500852FC53F055E457D859CC5BC05D0C
:1002F000B45FA8619C639065846778696C6B606D7E
:10030000546F48713C733075247718790C7B007DED
:100310000C7B1879247730753C734871546F606D8D
:100320006C6B7869846790659C63A861B45FC05DFD
:10033000CC5BD859E457F055FC5308521450204E6A
:100340002C4C384A444850465C4468427440803ED5
:100350008C3C983AA438B036BC34C832D430E02E45
:10036000EC2CF82A042910271C2528233421401FAF
:100370004C1D581B641970177C1588139411A00F1D
:10038000AC0DB80BC409D007DC05E803F40100008C
:10039000000088131027983A204EA861307518790C
:1003A000007D007D007D007D007D007D007D007D65
:1003B000007D007D007D007D007D007D007D007D55
:1003C000007D007D007D007D007D007D007D007D45
:1003D000007D007D007D007D007D007D007D007D35
:1003E000007D007D007D007D007D007D007D007D25
:1003F000007D007D007D007D007D007D007D007D15
:10040000007D007D007D007D007D007D007D007D04
:10041000007D007D007D007D007D007D007D007DF4
:10042000007D007D007D007D007D007D007D007DE4
:10043000007D007D007D007D007D007D007D007DD4
:10044000007D007D007D007D007D007D007D007DC4
:10045000007D007D007D007D007D007D007D007DB4
:10046000007D007D007D007D007D007D007D007DA4
:10047000007D007D007D007D007D007D007D007D94
:10048000007D18793075A861204E983A102788139E
:1004900000000000FA00F401EE02E803E204DC05CB
:1004A000D606D007CA08C409BE0AB80BB20CAC0DF8
:1004B000A60EA00F9A1094118E12881382147C1528
:1004C000761670176A1864195E1A581B521C4C1D58
:1004D000461E401F3A2034212E22282322241C2588
:1004E000162610270A280429FE29F82AF22BEC2CBC
:1004F000E62DE02EDA2FD430CE31C832C233BC34F0
:10050000B635B036AA37A4389E39983A923B8C3C1F
:10051000863D803E7A3F74406E41684262435C444F
:10052000564550464A4744483E49384A324B2C4C7F
:10053000264D204E1A4F14500E5108520253FC53B0
:10054000F654F055EA56E457DE58D859D25ACC5BE7
:10055000C65CC05DBA5EB45FAE60A861A2629C6317
:10056000966490658A6684677E687869726A6C6B47
:10057000666C606D5A6E546F4E70487142723C7377
:10058000367430752A7624771E781879127A0C7BA7
:10059000067C007D11241FBECFE5D2E0DEBFCDBFBB
:1005A00022E0A0E6B0E001C01D92A930B207E1F759
:1005B00002D0B8C825CD63D069D068EE73E080E87A
:1005C0009EE362D7FFD22ED27894D0E0C0E0809133
:1005D0008B01811117C07BD085B7877E806185BF75
:1005E00085B7806285BF889585B78F7D85BF81E09F
:1005F0006ED02FEF86E791E0215080409040E1F7E8
:1006000000C0000080E04BD080918B01813089F4E4
:100610008091C501882369F010928B0111E01D0FB4
:100620006D2F81E030D18091C501181710F1D0E015
:1006300023C080918B01823089F48091C601882388
:1006400069F010928B0111E01C0F6C2F82E01BD11E
:100650008091C601181778F0C0E00EC080918B0120
:1006600010928B01833041F46091A40180E00BD1A2
:1006700003C0D12F01C0C12F80E011D0A8CFB998FD
:10068000C198BB98C398BD9AC598089510928B01E4
:1006900015BA8BB780628BBF8AE085BB089590E066
:1006A000282F22708170B19902C0882331F0B3994C
:1006B00002C0222311F09F5F01C090E0EFE9FFE04C
:1006C0003197F1F700C00000923368F30895882352
:1006D00011F0C5980895C59A08951F920F920FB60C
:1006E0000F9211248F93B1990BC080918B0180FDE3
:1006F00007C080918B01816080938B011092C701AC
:10070000B3990BC080918B0181FD07C080918B0153
:10071000826080938B011092C7018F910F900FBE62
:100720000F901F9018954F925F926F927F928F92C9
:100730009F92AF92BF92CF92DF92EF92FF920F9370
:100740001F93CF93DF931F92CDB7DEB7082FB62E3E
:10075000142F812C912CD92C35E0E32EF12C802FF5
:10076000A2D68D2DA7D6882DA5D697D7882321F080
:1007700081E0E81AF10899F764E0802F99D7A7D6AD
:10078000982F64E0802F998393D724E0A22E40E035
:1007900050E0BA019981452E562E672E7724998311
:1007A00096D6C82ED12CE12CF12CFC2CEE24DD2485
:1007B000CC24B701A601440D551D661D771DAA94D2
:1007C0009981A110E8CF903559F082E0B81203C0AA
:1007D0009D3431F406C081E0B81203C0923509F0AF
:1007E0001F5F8FEF810F112361F0411551056105E6
:1007F000710529F098E0890E911C840E951E182F22
:10080000AACF9D34C1F0923561F5B401685F7F4F86
:10081000802F0F90DF91CF911F910F91FF90EF905C
:10082000DF90CF90BF90AF909F908F907F906F9010
:100830005F904F908BC5B401685F7F4F802F0F9002
:10084000DF91CF911F910F91FF90EF90DF90CF90AC
:10085000BF90AF909F908F907F906F905F904F90E0
:1008600002C40F90DF91CF911F910F91FF90EF90F5
:10087000DF90CF90BF90AF909F908F907F906F90C0
:100880005F904F900895CF93DF93462FC82FD0E00D
:1008900023E0CC0FDD1F2A95E1F7E0E0F0E05E2FCA
:1008A0009F013196DF01AC0FBD1FA557BE4F9C9134
:1008B000491710F0491BF3CF93E0220F331F9A958D
:1008C000E1F724573E4F232B31F0682F80E5850F49
:1008D000DF91CF9128CFDF91CF9108954F925F9212
:1008E0006F927F928F929F92AF92BF92CF92DF9240
:1008F000EF92FF920F931F93CF93DF931F92CDB789
:10090000DEB7782E8B015A01FB011082FA011082AA
:10091000412C512CD52CE12CF12C872DC4D58D2DBB
:10092000C9D5842DC7D5FFEFEF1AFF0AB6D68823A5
:1009300031F085E0E816F10481F780E061C095E0D0
:10094000E916F10409F45CC064E0872DB1D6BFD587
:10095000982F8D3449F08D7F803531F0F8019081EA
:10096000F5018081890F4CC064E0872D9983A0D662
:1009700024E0922EC12CD12C76019981CD2CDE2C35
:10098000EF2CFF249983A3D5482F50E060E070E05E
:10099000742F662755274427C40ED51EE61EF71E62
:1009A0009A9499819110EACF923511F4F50103C020
:1009B0009D3481F4F80180818F5F8083C114D1045C
:1009C000E104F10409F4A6CFC20108962C014C0CF5
:1009D0005D1CA0CF6C2D872D6BD6612C862D90E0F1
:1009E000A0E0B0E08C159D05AE05BF0538F7862C5C
:1009F000912C6DD5F401EC55FE4F80836394EECFBE
:100A00000F90DF91CF911F910F91FF90EF90DF90AA
:100A1000CF90BF90AF909F908F907F906F905F909E
:100A20004F900895CF92DF92EF92FF921F93CF9352
:100A3000DF9300D0CDB7DEB780E090E0FC01EC554D
:100A4000FE4F1082019680329105C1F71092C401C9
:100A50001092C5011092C6018CE9C82E81E0D82EF3
:100A60009CE8E92E91E0F92E10E5AE014F5F5F4F53
:100A7000BE016E5F7F4F812F31DF9A81F601919326
:100A80006F012091C601920F9093C6019981399709
:100A900090832091C501920F9093C501F701819336
:100AA0007F019091C401890F8093C4011F5F1835A5
:100AB000E1F60F900F90DF91CF911F91FF90EF9093
:100AC000DF90CF900895BC9AC49A82E880BF80E6F8
:100AD0008CBD8FEF8DBD8BBD1FBC0895BC011092E6
:100AE00064001092630080E09DE708D66093620086
:100AF0001092610080E88093600089B7846089BFAC
:100B00000895909164009F5F9F71209163009217F8
:100B1000E1F3E92FF0E0E853FE4F80839093640007
:100B2000089589B78B7F89BF08951F920F920FB6E2
:100B30000F9211248F939F93EF93FF938091610005
:100B40008F5F80936100909161008091620098179F
:100B5000C8F0109261009091640080916300981732
:100B600089F0E0916300F0E0E853FE4F80818093CC
:100B70006000809160008BBD809163008F5F8F71FA
:100B800080936300FF91EF919F918F910F900FBE23
:100B90000F901F90189580E090E0FC0123E0EE0F8D
:100BA000FF1F2A95E1F7E459FE4F1082138212824B
:100BB0001682118215821482178201968330910564
:100BC00061F7089580DFE7DFE5E6F0E0118210824B
:100BD00013821282158214821782168283E08ABDE4
:100BE00085E083BF8FEF89BD12BE0895EF920F930A
:100BF00090E0FC0153E0EE0FFF1F5A95E1F7E45936
:100C0000FE4F672B29F0408333832283068307C07E
:100C1000108213821282168211821582148223E0BE
:100C2000880F991F2A95E1F7FC01E459FE4FE782EE
:100C30000F91EF90089520E030E0A0E14FEFC9015F
:100C400065E570E04AD583599F4FFC01EB5BFF4F90
:100C5000118210823596118210823397108231965C
:100C6000118210823496118210823296A0833396BC
:100C70004083329640833497108231961082709769
:100C800011821082329611821082329610822F5F6A
:100C90003F4F2330310599F608959F92AF92BF924E
:100CA000CF92DF92EF92FF920F931F93CF93DF9338
:100CB000EB01082F10E0C80165E570E00ED59C013E
:100CC00023593F4FF901EB5BFF4F80819181892BC5
:100CD00009F460C0209709F4E4C0C80165E570E03C
:100CE000FCD4BC0163597F4FFB01EE5BFF4F408199
:100CF00051813297208131812F5F3F4F2F713327F0
:100D00004217530709F4CDC02197408151819A01C0
:100D10002F5F3F4F31832083FB01EB5BFF4FC08090
:100D2000D180DB01A45BBF4F2D913C9111977901DC
:100D3000EFEFEE1AFE0A1196FC92EE92220F331F8D
:100D4000F601E20FF31F25913491440F551F840FD4
:100D5000951FFC01E359FF4F318320832D913C9176
:100D60001197FB01E65BFF4F8081918128173907BE
:100D700018F011961C921E92C80165E570E0ADD482
:100D8000FC01E355FF4F208131812F7133273183DF
:100D90002083A0CFF901E85BFF4F80819181892BEF
:100DA00009F47FC0D901A95BBF4FDC90808191819C
:100DB0001596ED90FC901197EE0CFF1CE80EF91EB5
:100DC0003296208131818D919C911197281B390B8E
:100DD0002C173D0730F4C081D1818D919C91C81BA7
:100DE000D90BCF2C8D2D5FD38C2D64D38E2D62D358
:100DF00054D48111F7CF6C2F660F8D2D59D42097C5
:100E000009F44FC0C80165E570E067D45C018359FF
:100E10009F4F6C01FC01EE5BFF4F80819181329707
:100E2000208131812F5F3F4F2F7133278217930726
:100E3000C1F12197E080F180C70101969183808301
:100E400046D3982E44D3292D30E0382BEE0CFF1CCE
:100E5000F701EA0DFB1DE359FF4F31832083F601B3
:100E6000E45BFF4F80819181019691838083208193
:100E70003181D601A65BBF4F8D919C912817390710
:100E800010F011821082C80165E570E026D4FC01E3
:100E9000E355FF4F208131812F7133273183208328
:100EA000AECFDF91CF911F910F91FF90EF90DF9028
:100EB000CF90BF90AF909F900895CF92DF92EF9226
:100EC000FF920F931F93CF93DF9360E270E080E077
:100ED000E4DE60E270E081E0E0DE60E270E082E0AB
:100EE000DCDE59DE81E08093C70180E89EE3F6DD19
:100EF00089B7806189BFF12C90E8C92ED12C8091EF
:100F0000C701882309F4A3C0409164004F5F4F716B
:100F100080916300481709F48FC000E010E0A0E062
:100F2000B0E8980183E0220F331F8A95E1F7B901F9
:100F300064597E4FEB018A819B81892B09F46DC036
:100F40008C819D81E92FFF27EE2ED0E8DE1718F067
:100F5000EB018F8106C0EB018F81B6016E1B7F0B09
:100F6000FB0190E061E870E0B8D38E0F9F1FFC0199
:100F7000EE0FFF1FE457FE4F85919491F901E4595C
:100F8000FE4F5681503159F1552329F153FF04C0CA
:100F9000BC017695679502C060E070E052FF07C023
:100FA000FC01F695E795F695E7956E0F7F1F51FFCB
:100FB00008C0FC01C3E0F695E795CA95E1F76E0F0E
:100FC0007F1F50FF0BC054E0969587955A95E1F727
:100FD000860F971F04C080E090E001C0CB0170E84D
:100FE0007E1518F0A80FB91F02C0A81BB90BF90194
:100FF000E459FE4F81818F5F8183918180819817B1
:1010000020F011821582148208C08281938124818C
:101010003581820F931F958384830F5F1F4F0330A9
:10102000110509F07ECFE42FF0E0E853FE4FB083C6
:10103000409364001F2D09C011E01F0D68E070E0AF
:101040008F2D2BDE133008F010E0F12E58CF89B72A
:101050008F7E89BFDF91CF911F910F91FF90EF900D
:10106000DF90CF905ECDDF92EF92FF920F931F93B0
:10107000CF93DF93F82EEB01DEDD1D2F8F2D13D2E2
:10108000812F18D28C2F16D208D38111F7CF61E0AF
:101090008F2D0ED321961BD2E82E00E010E00E1506
:1010A00080F5DD2E8F2DFFD18D2D04D28C2F02D215
:1010B000F4D28111F7CF62E08F2DFAD2229607D2B7
:1010C000D82E05D2282F30E0322F22272D0D311DAA
:1010D000C80165E570E001D3AC0143595F4FFA01E7
:1010E000E95BFF4FF0823196D183C083C9019695A9
:1010F0008795329691838083C20FD31F0F5F1F4F56
:10110000CECFDF91CF911F910F91FF90EF90DF90A5
:10111000D4CE1F920F920FB60F921124CF92DF926E
:10112000EF920F931F932F933F934F935F936F9380
:101130007F938F939F93AF93BF93CF93DF93EF935F
:10114000FF93C0E0D0E01C2FCE0165E570E0C5D272
:1011500083599F4FFC01EC5BFF4F2081211199C007
:10116000369680819181892B09F493C0CE0165E583
:1011700070E0B3D29C0123593F4FF901EC5BFF4F64
:1011800040814111C6C0F901EE5BFF4F0190F08133
:10119000E02DEE0FFF1F8E0F9F1FFC01E359FF4F45
:1011A00080819181492F552747FF2EC04F774330CB
:1011B0005105E1F05CF441305105A1F04230510598
:1011C00009F057C0F901EF5AFF4F13C045305105E0
:1011D000C1F094F04830510509F04BC0F901E05BD3
:1011E000FF4F0DC0F901E25BFF4F09C0F901ED5A55
:1011F000FF4F808331963CC0F901E15BFF4F808354
:1012000038C01092C70135C0E42F442331F0F901F2
:10121000E15BFF4F6081E62FE40F2FEF280FCE0137
:1012200065E570E05AD283599F4F6C01DC01AC5BDD
:10123000BF4F2C931C96EC9012970C916E2F70E080
:10124000660F771FFB01E25EFF4F25913491FB0192
:10125000E856FF4F45915491FB01EE5EFE4F6591BC
:101260007491812FC3DCF601EC5AFF4F1082329744
:101270001082CE0165E570E030D2FC01E155FF4FF0
:10128000208131812F5F3F4F2F713327318320839E
:101290006DCFCE0165E570E020D29C0123593F4F10
:1012A000F901EC5BFF4F4081415040833E965081F5
:1012B000D901AF5ABF4F4C91541728F1DE0143E0DA
:1012C000AA0FBB1F4A95E1F7A459BE4F16964C9141
:1012D00016974423F1F0A9014C5A5F4FFA0160813F
:1012E00031972081FA01621740F0108216968C9196
:1012F0001697815016968C930CC020812F5FFC01AD
:10130000EF53FF4F05C020812F5FFC01E154FF4FD9
:1013100020832196C330D10509F015CFFF91EF91BD
:10132000DF91CF91BF91AF919F918F917F916F91FD
:101330005F914F913F912F911F910F91EF90DF900F
:10134000CF900F900FBE0F901F9018958F929F9285
:10135000AF92BF92CF92DF92EF92FF92CF93DF9343
:10136000C82FD62FF72E8C2F9ED08F2DA3D08D2F48
:10137000A1D093D18111F7CF64E08C2F99D164E093
:101380008C2F96D164E08C2F93D162E08C2F90D17A
:1013900062E08C2F8DD164E08C2F8AD1D4E0812C37
:1013A000912C5401892C9A2CAB2CBB2490D090E02A
:1013B000A0E0B0E0B82FAA2799278827880E991EA9
:1013C000AA1EBB1ED15071F764E08C2F71D162E070
:1013D0008C2F6ED162E08C2F6BD164E08C2F68D1A2
:1013E00064E08C2F65D1D4E0C12CD12C7601CD2CBA
:1013F000DE2CEF2CFF246BD090E0A0E0B0E0B82F03
:10140000AA2799278827C80ED91EEA1EFB1ED1508D
:1014100071F7C40163DB81E08093C7018091C7014C
:101420008823B9F060E28C2F43D1D0E250D069DB41
:10143000D150E1F780E2C816D104E104F10418F4B8
:101440001092C701EBCF80E2C81AD108E108F10879
:10145000E5CFDF91CF91FF90EF90DF90CF90BF90DD
:10146000AF909F908F905DCB87B3856087BB88B32B
:10147000856088BB87B3856087BB8FEF8FB98AE2B1
:101480008DB980EF8EB9089539D184E0769567954E
:101490008A95E1F770938A016093890170938801BE
:1014A00060938701E1CF91E090938601880F80934C
:1014B000E9010895E0918601E03240F491E09E0F49
:1014C00090938601F0E0E751FE4F80830895E0910C
:1014D000850181E08E0F80938501F0E0E751FE4F9A
:1014E00080810895009719F000000197FBCF0895BF
:1014F000CF93CBE28091870190918801F3DFCDB942
:10150000B29BFECF8091890190918A01EBDFCDB92A
:10151000769BF0CF8091870190918801E3DF8FB1B6
:101520009FEF9FB9B89ACF910895C29AC29BFECF00
:101530008091870190918801D5DFC09880918901C1
:1015400090918A01CFDFC298C09A779905C083E055
:101550008093E80180E0089581E00895C098C29AE0
:10156000B29BFECF8091890190918A01BBDFC09A26
:101570008091870190918801B5DF9EB1892F80729B
:1015800095FD04C094E09093E801089581E00895EA
:10159000AF92BF92CF92DF92EF92FF920F931F9381
:1015A000CF93DF93F82E1091860181E08093E801BC
:1015B0008091E90180FD03C083E08093E801B5DFFD
:1015C000882349F1C9EED1E080EFE82E0EEFBB246D
:1015D000BA94AA24A3949091E80193709E012F5F7E
:1015E0003F4F6901992391F188818FB9B89AEEB87C
:1015F0007FDFB8981FB80EB97BDF9091E80180FFBC
:101600000CC090FF02C081E001C082E08093E8013D
:10161000F11001C0A3DF90E034C0892F85708430C1
:1016200089F4109186019091E90191609093E9010C
:10163000A092E8017ADF982F811116C08AE080938A
:10164000E8011FC09E7F9093E8010CC0B898EEB8E7
:101650004FDF8883113011F4BFB801C01FB8B89AAA
:101660000EB946DFE60102C0C9EED1E0115009F023
:10167000B2CFF11005C072DF91E0811102C0CBCF73
:1016800091E0892FDF91CF911F910F91FF90EF9003
:10169000DF90CF90BF90AF90089580E079DF1092F7
:1016A0008601882311F080E008958091E801089573
:1016B00091E0909385016F5F60938401880F816052
:1016C0008093E9016093860180E062DF811103C0AD
:1016D0008091E801089580E008950024552704C012
:1016E000080E591F880F991F009729F07695679566
:1016F000B8F37105B9F7802D952F0895AA1BBB1B70
:1017000051E107C0AA1FBB1FA617B70710F0A61B01
:10171000B70B881F991F5A95A9F780959095BC0122
:08172000CD010895F894FFCFFC
:00000001FF
