:1000000022C331C3CBC52FC304C72DC32CC32BC3FD
:100010002AC329C3C6C927C326C325C324C30000D6
:100020000A011A012B013F014F016401780191017E
:10003000A901C201DB01F701180239025A02830249
:10004000A302CC02F502220353038503BA03F30390
:1000500031046E04B404F90447059505EB05450623
:10006000A3060A077407E7075E08DD086409F309B9
:100070008B0A2B0BD70B8B0C4B0D140EE90ECE0FEE
:10008000C010BE11CC12EB131A155A16AE17161962
:10009000931A281CD21D991F0000F600E700DB0010
:1000A000CD00C300B700AD00A30099009100890006
:1000B00082007A0073006C00650060005B005600EF
:1000C00051004C004800440040003D00390036001B
:1000D000330030002D002B002800260024002200D1
:1000E00020001E001C001B0019001800160015003F
:1000F000140013001200110010000F000E000D007C
:100100000C000C000B000A000A000900090008009E
:10011000080000004100450049004E005200570011
:100120005C00620068006E0074007B0083008B003E
:1001300093009D00A500AF00B900C400D000DC0012
:10014000E900F70006011501260137014A015D01AA
:10015000720188019F01B801D201EE010B022A024F
:100160004B026E029302BA02E40210033F037003D3
:10017000A403DC03170455049704DD042705750563
:10018000C80520067D06E0064807B70700001103F2
:1001900022063209400C4D0F57125E156218631B80
:1001A0005F1E5621492435271C2AFC2CD52FA73247
:1001B00071353338EC3A9C3D4340DF427245F94794
:1001C000764AE74C4C4FA551F15331566358875A44
:1001D0009E5CA65EA0608B6266643266EF679B6978
:1001E000376BC26C3D6EA76FFF7046727C739F7455
:1001F000B175B0769E7778784179F679997A287BCF
:10020000A57B0F7C657CA97CD97CF67C007DF67C87
:10021000D97CA97C657C0F7CA57B287B997AF679B3
:10022000417978789E77B076B1759F747C73467209
:10023000FF70A76F3D6EC26C376B9B69EF673266CC
:1002400066648B62A060A65E9E5C875A63583156D6
:10025000F153A5514C4FE74C764AF9477245DF42BE
:1002600043409C3DEC3A33387135A732D52FFC2CF6
:100270001C2A3527492456215F1E631B62185E1510
:1002800057124D0F400C32092206110300000000E6
:10029000F401E803DC05D007C409B80BAC0DA00FCE
:1002A000941188137C1570176419581B4C1D401F3E
:1002B000342128231C2510270429F82AEC2CE02EB1
:1002C000D430C832BC34B036A438983A8C3C803E26
:1002D000744068425C4450464448384A2C4C204E96
:1002E00014500852FC53F055E457D859CC5BC05D0C
:1002F000B45FA8619C639065846778696C6B606D7E
:10030000546F48713C733075247718790C7B007DED
:100310000C7B1879247730753C734871546F606D8D
:100320006C6B7869846790659C63A861B45FC05DFD
:10033000CC5BD859E457F055FC5308521450204E6A
:100340002C4C384A444850465C4468427440803ED5
:100350008C3C983AA438B036BC34C832D430E02E45
:10036000EC2CF82A042910271C2528233421401FAF
:100370004C1D581B641970177C1588139411A00F1D
:10038000AC0DB80BC409D007DC05E803F40100008C
:10039000000088131027983A204EA861307518790C
:1003A000007D007D007D007D007D007D007D007D65
:1003B000007D007D007D007D007D007D007D007D55
:1003C000007D007D007D007D007D007D007D007D45
:1003D000007D007D007D007D007D007D007D007D35
:1003E000007D007D007D007D007D007D007D007D25
:1003F000007D007D007D007D007D007D007D007D15
:10040000007D007D007D007D007D007D007D007D04
:10041000007D007D007D007D007D007D007D007DF4
:10042000007D007D007D007D007D007D007D007DE4
:10043000007D007D007D007D007D007D007D007DD4
:10044000007D007D007D007D007D007D007D007DC4
:10045000007D007D007D007D007D007D007D007DB4
:10046000007D007D007D007D007D007D007D007DA4
:10047000007D007D007D007D007D007D007D007D94
:10048000007D18793075A861204E983A102788139E
:1004900000000000FA00F401EE02E803E204DC05CB
:1004A000D606D007CA08C409BE0AB80BB20CAC0DF8
:1004B000A60EA00F9A1094118E12881382147C1528
:1004C000761670176A1864195E1A581B521C4C1D58
:1004D000461E401F3A2034212E22282322241C2588
:1004E000162610270A280429FE29F82AF22BEC2CBC
:1004F000E62DE02EDA2FD430CE31C832C233BC34F0
:10050000B635B036AA37A4389E39983A923B8C3C1F
:10051000863D803E7A3F74406E41684262435C444F
:10052000564550464A4744483E49384A324B2C4C7F
:10053000264D204E1A4F14500E5108520253FC53B0
:10054000F654F055EA56E457DE58D859D25ACC5BE7
:10055000C65CC05DBA5EB45FAE60A861A2629C6317
:10056000966490658A6684677E687869726A6C6B47
:10057000666C606D5A6E546F4E70487142723C7377
:10058000367430752A7624771E781879127A0C7BA7
:10059000067C007D0700080009000A000B000C0023
:1005A0000D000E00100011001300150017001900B7
:1005B0001C001F002200250029002D0032003700FA
:1005C0003C00420049005000580061006B0076007A
:1005D00082008F009D00AD00BE00D100E600FD004E
:1005E00017013301510173019801C101EE0120028D
:1005F00056029202D4021C036C03C30324048E042B
:10060000020583051006AB0656071208E008C30969
:10061000BD0AD00BFF0C4C0EBA0F4C110713EE1491
:1006200006175419DC1BA51EB6211525CA28DF2C78
:100630005B314B36B93BB24144487E4F71572F6016
:10064000CE696274FF7F11241FBECFE5D2E0DEBF0A
:10065000CDBF21E0A0E6B0E001C01D92A53CB207ED
:10066000E1F750D17FCACCCCCF93DF9327D9C0E537
:10067000D5E08C2F32D980E037D980E035D92DDA1A
:10068000882351F0D150A9F7CF5FC83589F7809101
:100690006400DF91CF910895E091640081E08E0FB6
:1006A00080936400F0E0EB5CFE4FC083EDCFCF920F
:1006B000DF92EF92FF920F931F93CF93DF9300D0BF
:1006C000CDB7DEB7F62EC82E082F10E0E72E85E056
:1006D000D82E0B5C1E4FF801808179839A83FDD858
:1006E0008E2D02D98F2D00D9F8D979819A8188234E
:1006F00019F0DA94D110EFCFF0926000709361009E
:10070000C0926200909363000F900F90DF91CF91A1
:100710001F910F91FF90EF90DF90CF9008958F92EF
:100720009F92AF92BF92CF92DF92EF92FF920F9380
:100730001F93CF931092660010926500813208F0EB
:1007400080E2009160001091610020916200309180
:10075000630068017901C80ED11CE11CF11C46013F
:10076000570180269126A226B32688249924BB24EB
:10077000A9016627772789288A288B2899F550E0D0
:10078000FA01EB5CFE4F682F8081B2D9882311F00B
:1007900080E061C0C1D8082F10E01017C1F0C091EF
:1007A000650081E08C0F80936500ABD8EC2FF0E002
:1007B000E35CFE4F80831F5FF0CFC701B601662761
:1007C0007727992774DF8111E3CFC11028C0C09229
:1007D0006000D0926100E0926200F092630080912C
:1007E000650039C0019550E0FA01EB5CFE4F602FC7
:1007F00080817ED98111CCCF8FD8082F10E01017BF
:10080000E1F2C091650081E08C0F8093650079D89A
:10081000EC2FF0E0E35CFE4F80831F5FF0CFEE2D06
:10082000F0E0EB5CFE4F6C2D808162D98111B0CF7E
:1008300073D8082F10E0101751F2C091650081E0C5
:100840008C0F809365005DD8EC2FF0E0E35CFE4FE9
:1008500080831F5FF0CFCF911F910F91FF90EF909A
:10086000DF90CF90BF90AF909F908F900895E091D0
:10087000660081E08E0F80936600F0E0E35CFE4F3F
:1008800080810895CF93F3DFC82FF1DF282F30E068
:10089000922F88278C0F911DCF910895CF92DF92D0
:1008A000EF92FF92CF93E3DFC82FE1DFC82EDFDFA7
:1008B000D12CE12CF12CFE2CED2CDC2CCC24482F5F
:1008C00050E060E070E0BA0155274427C40ED51E01
:1008D000E61EF71ECC0ED11CE11CF11CC8DF90E017
:1008E000A0E0B0E0B82FAA2799278827BC01CD0146
:1008F0006C0D7D1D8E1D9F1DCF91FF90EF90DF90A1
:10090000CF900895CF93DF93CDB7DEB72C970FB676
:10091000F894DEBF0FBECDBFF3D068EE73E080E881
:100920009EE3A2DEC3D260D1CE0101966C01FC0130
:100930008CE08C0D11928E13FDCF80915F0182307F
:1009400021F080915F01833011F485E001C082E3E2
:10095000E9D0789410E000E080915E01811117C029
:1009600017D185B7877E806185BF85B7806285BFD7
:10097000889585B78F7D85BF81E00AD19FEFE6E737
:10098000F1E09150E040F040E1F700C000008091BC
:100990005F01813009F458C008F473C0843008F056
:1009A000ACC080915E01813009F04BC08EEFD8D091
:1009B000F12CE6D080FF0CC0E3D081FFFACF8DEFA1
:1009C000CFD0F394DDD081FDFDCF8DEFAED0F1CF50
:1009D0001F2D80E0AAD010925E01FF2009F48DC087
:1009E00080915F01833001F58F2D90E0FC013197FC
:1009F000D601AE0FBF1F6C91DC01A15ABE4F2C91E6
:100A0000621708F46C91AF014C0D5D1D21E0260FBB
:100A1000FA012083805A9E4FFC018081281728F01C
:100A20008C91FA01808301C06F2D80917F01861720
:100A300020F480917F01681BF8CF062F80E051D110
:100A400059C010925E0159C080E06FD080915E0164
:100A5000813041F410925E01111102C010917F01AA
:100A600011500DC080915E0110925E01823009F03C
:100A700044C01F5F80917F01181708F010E0612FBC
:100A800036C080E052D080915E01813091F4809137
:100A90008001882371F010925E01FF24F394F10E1F
:100AA000612F81E01ED180918001F81618F110E0CD
:100AB00024C080915E01823091F48091810188236D
:100AC00071F010925E01FF24F394F00E602F82E02B
:100AD00008D180918101F81678F000E00EC0809175
:100AE0005E0110925E01833041F46091600180E00C
:100AF000F8D003C01F2D01C00F2D80E016D02CCFE1
:100B000010925E0184E680935D01B998C198BB980C
:100B1000C398BD9AC59815BA8BB780628BBFA99A46
:100B2000AB9A089580935D01089590E0382F32705C
:100B3000817020915D01921790F4B19902C08823D1
:100B400031F0B39902C0332311F09F5F01C090E0F0
:100B5000EFE9FFE03197F1F700C00000EACF089518
:100B600080E090915D01891750F496B396B38F5F42
:100B7000EFE9FFE03197F1F700C00000F2CF0895F0
:100B800086B38695817091E08927B39B8260089532
:100B9000882311F0C5980895C59A08951F920F9261
:100BA0000FB60F9211248F93B1990BC080915E0103
:100BB00080FD07C080915E01816080935E0110928C
:100BC0008201B3990BC080915E0181FD07C08091C5
:100BD0005E01826080935E01109282018F910F907E
:100BE0000FBE0F901F9018958F929F92AF92BF9259
:100BF000CF92DF92EF92FF920F931F93CF9380E0FB
:100C000090E0FC01E15AFE4F10820196803291057E
:100C1000C1F710927F011092800110928101C12CC6
:100C2000D12C7601C701B60142DD81114EC084E0AE
:100C300076DD1DDEC82F8D3421F08D7F803509F0E3
:100C400044C084E06CDD2ADE4B015C01C235C9F48E
:100C500080917F018F5F80937F01809180018F5F02
:100C60008093800181149104A104B104D9F288E039
:100C7000C80ED11CE11CF11CC80CD91CEA1CFB1CC1
:100C8000D1CFCD3459F480917F018F5F80937F0164
:100C9000809181018F5F80938101E4CFC03511F78E
:100CA000862F3DDDC0E08C2F90E0A0E0B0E08815FD
:100CB0009905AA05BB05B0F60C2F10E0D8DDF801A8
:100CC000E15AFE4F8083CF5FEECFCF911F910F91FE
:100CD000FF90EF90DF90CF90BF90AF909F908F905C
:100CE0000895CF92DF92EF92FF921F93CF93DF93FD
:100CF000182FC62FC12CD12C7601C701B601D7DC25
:100D000081114DC084E00BDDB2DDD82F8D34B1F000
:100D10008D7F803599F0DD34A1F1D23509F03FC0E7
:100D2000C701B601685F7F4F8F4F9F4FDF91CF9113
:100D30001F91FF90EF90DF90CF90BEC484E0EFDC76
:100D4000ADDDD03549F0123019F4DD3429F405C099
:100D5000113019F4D23509F0CF5F2FEF2C0FCC23CF
:100D6000D1F2611571058105910549F038E0C30E96
:100D7000D11CE11CF11CC60ED71EE81EF91EC22FA5
:100D8000BCCFC701B601685F7F4F8F4F9F4FDF9188
:100D9000CF911F91FF90EF90DF90CF90B2C2DF9183
:100DA000CF911F91FF90EF90DF90CF900895BC9A64
:100DB000C49A82E880BF80E68CBD8FEF8DBD8BBD6D
:100DC0001FBC0895BC0110926B0010926A0080E075
:100DD0009DE7B4D6609369001092680080E8809324
:100DE000670089B7846089BF089590916B009F5F09
:100DF0009F7120916A009217E1F3E92FF0E0ED571F
:100E0000FE4F808390936B00089589B78B7F89BFD5
:100E100008951F920F920FB60F9211248F939F93F4
:100E2000EF93FF93809168008F5F809368009091AB
:100E30006800809169009817C8F01092680090913E
:100E40006B0080916A00981789F0E0916A00F0E0E9
:100E5000ED57FE4F808180936700809167008BBDC6
:100E600080916A008F5F8F7180936A00FF91EF918C
:100E70009F918F910F900FBE0F901F90189580E05B
:100E800090E0FC0123E0EE0FFF1F2A95E1F7EA5EF8
:100E9000FE4F1082138212821682118215821482F2
:100EA000178201968330910561F7089580DFE7DFAF
:100EB000ECE6F0E011821082138212821582148215
:100EC0001782168283E08ABD85E083BF8FEF89BDDC
:100ED00012BE0895EF920F9390E0FC0153E0EE0FE5
:100EE000FF1F5A95E1F7EA5EFE4F672B29F040831A
:100EF00033832283068307C01082138212821682F4
:100F000011821582148223E0880F991F2A95E1F738
:100F1000FC01EA5EFE4FE7820F91EF90089520E01A
:100F200030E0A0E14FEFC90166E370E0F6D5FC01C7
:100F3000EC58FF4F16A215A214A613A617A210A6CE
:100F400011A612A616A615A6A7A742AB44AB10AAD7
:100F500011AA11A210A213A212A214A22F5F3F4F36
:100F60002330310501F70895CF92DF92EF92FF927F
:100F70000F931F93CF93DF93EB01082F10E0C8016D
:100F800066E370E0CAD5FC01EC58FF4F85A196A13D
:100F9000892B09F462C0209709F4D4C0C80166E324
:100FA00070E0BBD5DC01AC58BF4F92962D913C91BF
:100FB000939790968D919C91919701968F70992718
:100FC0002817390709F4BEC021979096ED90FC9040
:100FD0009197C701019691969C938E9390979596C1
:100FE000ED91FC9196979D962D913C919E97C9010C
:100FF00001969E969C938E939D97220F331FE20F2E
:10100000F31F25913491C8016BE170E086D58E0DF8
:101010009F1DFC01EE0FFF1FEC58FF4F3183208313
:101020009D962D913C919E979B968D919C919C971E
:101030002817390720F09E961C921E929D97C80192
:1010400066E370E06AD5FC01EC58FF4F20A131A1A6
:101050002F70332731A320A39ECF87A190A5A1A5F0
:10106000B2A5892B8A2B8B2B09F46CC087A190A584
:10107000A1A5B2A525A536A5220F331FBC01CD0120
:10108000620F731F811D911D23A534A545A556A58B
:10109000241B350B2C173D0730F4C3A5D4A525A57B
:1010A00036A5C21BD30B03DB81114CC08C2F880FDC
:1010B00036DB209709F446C0C80166E370E02DD501
:1010C0008C589F4F7C01FC0122A133A180A191A1EA
:1010D00001968F70992728173907A1F12197F701F9
:1010E000C0A0D1A0C601019691A380A3CBDB9C0137
:1010F000C8016BE170E011D58C0D9D1DFC01EE0F58
:10110000FF1FEC58FF4F31832083F70185A596A57B
:10111000019696A785A725A536A583A594A528178A
:10112000390710F016A615A6C80166E370E0F5D4DD
:10113000FC01EC58FF4F20A131A12F70332731A3C0
:1011400020A3B7CFDF91CF911F910F91FF90EF9028
:10115000DF90CF900895CF92DF92EF92FF920F939E
:101160001F93CF93DF9360E170E080E0FDDE60E1EC
:1011700070E081E0F9DE60E170E082E0F5DE7FDEC4
:1011800081E08093820180E89EE31CDE89B7806164
:1011900089BFF12C90E8C92ED12C8091820188233F
:1011A00009F4A3C040916B004F5F4F7180916A00BA
:1011B000481709F48FC000E010E0A0E0B0E8980103
:1011C00083E0220F331F8A95E1F7B9016A5E7E4FF3
:1011D000EB018A819B81892B09F46DC08C819D81F3
:1011E000E92FFF27EE2ED0E8DE1718F0EB018F81F4
:1011F00006C0EB018F81B6016E1B7F0BFB0190E0F7
:1012000061E870E08AD48E0F9F1FFC01EE0FFF1F74
:10121000E457FE4F85919491F901EA5EFE4F5681A5
:10122000503159F1552329F153FF04C0BC01769583
:10123000679502C060E070E052FF07C0FC01F695C0
:10124000E795F695E7956E0F7F1F51FF08C0FC01EB
:10125000C3E0F695E795CA95E1F76E0F7F1F50FF43
:101260000BC054E0969587955A95E1F7860F971F26
:1012700004C080E090E001C0CB0170E87E1518F05A
:10128000A80FB91F02C0A81BB90BF901EA5EFE4FF7
:1012900081818F5F818391818081981720F01182F5
:1012A0001582148208C08281938124813581820F46
:1012B000931F958384830F5F1F4F0330110509F03F
:1012C0007ECFE42FF0E0ED57FE4FB08340936B00EC
:1012D0001F2D09C011E01F0D68E070E08F2D44DE66
:1012E000133008F010E0F12E58CF89B78F7E89BFF8
:1012F000DF91CF911F910F91FF90EF90DF90CF90F2
:1013000084CDCF92DF92EF92FF921F93CF93DF9322
:101310006B017C0104DEC701B601C9D9811139C056
:1013200081E0FDD98FEFC81AD80AE80AF80A9FDAD7
:10133000182FC0E0D0E0C11720F5C701B601B7D91A
:10134000811127C082E0EBD982E0C80ED11CE11CDC
:10135000F11C98DA9C01CE0166E370E0DED3FC015B
:10136000EC58FF4FC7A2D0A6E1A6F2A6C9019695F8
:10137000879594A783A7C20ED31EE11CF11C21966A
:10138000DACFDF91CF911F91FF90EF90DF90CF9058
:10139000E2CEDF91CF911F91FF90EF90DF90CF9041
:1013A00008951F920F920FB60F921124CF92DF92E1
:1013B000EF920F931F932F933F934F935F936F93EE
:1013C0007F938F939F93AF93BF93CF93DF93EF93CD
:1013D000FF93C0E0D0E01C2FCE0166E370E09DD308
:1013E000FC01EC58FF4F84A1811192C083A594A504
:1013F000892B09F48DC0CE0166E370E08ED3DC0149
:10140000AC58BF4F94968C9194978111B5C0929629
:101410002D913C919397CE016BE170E07ED3820FCA
:10142000931FFC01EE0FFF1FEC58FF4F40815181CD
:10143000252F332727FF2CC02F7723303105E1F0EC
:101440006CF421303105A9F02230310509F050C08B
:10145000D2964C93D297D3961C924AC02530310530
:10146000A1F084F02830310509F042C0D1964C93A8
:101470003FC09F964C933CC0D4964C93D497D5963E
:101480001C9236C0D0964C9333C01092820130C06B
:10149000E22F222321F0D0966C91E62FE20F4150EB
:1014A000CE0166E370E039D38C589F4F6C01DC01AC
:1014B00094964C939497D196EC90D1979F960C91DB
:1014C0006E2F70E0660F771FFB01E25EFF4F2591E4
:1014D0003491FB01E856FF4F45915491FB01EE5EBC
:1014E000FE4F65917491812FF5DCF60115AA13AAC0
:1014F000CE0166E370E011D3FC01EC58FF4F22A14E
:1015000033A12F5F3F4F2F70332733A322A373CF15
:10151000CE0166E370E001D3FC01EC58FF4F24A13B
:10152000215024A333A922A9321700F1DE0123E0C0
:10153000AA0FBB1F2A95E1F7AA5EBE4F16962C9103
:1015400016972223C9F035A924A9321740F015AA0D
:1015500016968C911697815016968C930DC025A9DE
:101560002F5FFC01EC58FF4F25AB06C023A92F5F6E
:10157000FC01EC58FF4F23AB2196C330D10509F095
:101580002ACFFF91EF91DF91CF91BF91AF919F91C2
:101590008F917F916F915F914F913F912F911F910B
:1015A0000F91EF90DF90CF900F900FBE0F901F9094
:1015B00018958F929F92AF92BF92CF92DF92EF9247
:1015C000FF920F931F93DC01FB019081E92FF0E064
:1015D000EE0FFF1FEC56FA4FE590F490870183E081
:1015E000169507958A95E1F720E030E042FF04C0A8
:1015F0000E0D1F1D211D311DF694E79441FF04C0FF
:101600000E0D1F1D211D311D40FF06C0F694E794ED
:101610000E0D1F1D211D311D43FF0CC0C12CD12CEF
:101620007601C39446015701801A910AA20AB30AAF
:1016300095018401CD90DC9011970D2C000CEE08E3
:10164000FF080C0D1D1D2E1D3F1D011580E81807FC
:101650002105310564F40115E0E81E07EFEF2E07C0
:101660003E074CF400E010E82FEF3FEF04C00FEF0F
:101670001FE720E030E011961C930E9347708CEF2B
:10168000840F843020F0992341F0915006C04350DC
:10169000440F940F993508F098E5FB0190838D91E4
:1016A0009C911F910F91FF90EF90DF90CF90BF9092
:1016B000AF909F908F9008954F925F926F927F921C
:1016C0008F929F92AF92BF92CF92DF92EF92FF9252
:1016D0000F931F93CF93DF93CDB7DEB727970FB646
:1016E000F894DEBF0FBECDBFE2D78111C0C084E049
:1016F00016D884E014D884E012D8D0D86B017C01CD
:1017000020E1C21AD108E108F10882E008D8BAD86D
:101710005C0182E004D884E002D8C0D86C837D8369
:101720008E839F8384E0FBD782E0F9D7ABD88C010E
:1017300082E0F5D7C114D104E104F10411F08C2D3D
:10174000EED784E0ECD793D8863659F484E0E7D717
:10175000A5D8862FE4D7A2D82B013C0184E0DFD79F
:1017600003C0412C512C320184E0D9D797D86B01AA
:101770007C018C819D8126DB81E08093820181E068
:10178000A816B104D1F091E1A916B10409F06EC018
:10179000000F111FC80107976C014C01A12CB12C3F
:1017A0003CC065D822DB1150E1F790E2C916D104A4
:1017B000E104F10458F4109282018091820188239F
:1017C00009F454C080E2ABD710E2EBCF20E2C21A9A
:1017D000D108E108F108F1CF84E0A1D753D89A836A
:1017E000898345D88B83481459046A047B04D0F458
:1017F0008201401A510A61087108015011098A8159
:101800008058F3DA0115110579F484E04816510483
:101810006104710410F4109282018091820181119F
:10182000DBCF24C08601E5CF80918201882369F354
:1018300081E075D71CD8F82E482F4F70BE016D5F20
:101840007F4FCE010196B5DE80E8890FCEDA4F2DAD
:1018500042954F70BE016D5F7F4FCE010196A9DEAC
:1018600080E8890FC2DA02501109CCCFCEDA279670
:101870000FB6F894DEBF0FBECDBFDF91CF911F91A1
:101880000F91FF90EF90DF90CF90BF90AF909F901F
:101890008F907F906F905F904F90089587B3856091
:1018A00087BB88B3856088BB87B3856087BB8FEFB4
:1018B0008FB98AE28DB980EF8EB908953FD184E067
:1018C000769567958A95E1F77093340160933301BB
:1018D0007093320160933101E1CF91E09093300138
:1018E000880F8093A4010895E0913001E13240F423
:1018F00091E09E0F90933001F0E0EC55FE4F808315
:101900000895E0912F0181E08E0F80932F01F0E088
:10191000EC55FE4F8081089580912E0190912F010A
:10192000891B0895009719F000000197FBCF0895D7
:10193000CF93CBE28091310190913201F3DFCDB9A9
:10194000B29BFECF8091330190913401EBDFCDB992
:10195000769BF0CF8091310190913201E3DF8FB11E
:101960009FEF9FB9B89ACF910895C29AC29BFECFBC
:101970008091310190913201D5DFC098809133017F
:1019800090913401CFDFC298C09A779905C083E067
:101990008093A30180E0089581E00895C098C29AE1
:1019A000B29BFECF8091330190913401BBDFC09A8E
:1019B0008091310190913201B5DF9EB1892F807203
:1019C00095FD04C094E09093A301089581E00895EB
:1019D000AF92BF92CF92DF92EF92FF920F931F933D
:1019E000CF93DF93F82E1091300181E08093A30113
:1019F0008091A40180FD03C083E08093A301B5DF43
:101A0000882349F1C4EAD1E080EFE82E0EEFBB2431
:101A1000BA94AA24A3949091A30193709E012F5F7E
:101A20003F4F6901992391F188818FB9B89AEEB837
:101A30007FDFB8981FB80EB97BDF9091A30180FFBC
:101A40000CC090FF02C081E001C082E08093A3013E
:101A5000F11001C0A3DF90E034C0892F857084307D
:101A600089F4109130019091A40191609093A401A8
:101A7000A092A3017ADF982F811116C08AE080938B
:101A8000A3011FC09E7F9093A3010CC0B898EEB82D
:101A90004FDF8883113011F4BFB801C01FB8B89A66
:101AA0000EB946DFE60102C0C4EAD1E0115009F0E8
:101AB000B2CFF11005C072DF91E0811102C0CBCF2F
:101AC00091E0892FDF91CF911F910F91FF90EF90BF
:101AD000DF90CF90BF90AF90089580E079DF1092B3
:101AE0003001882311F080E008958091A3010895CA
:101AF00091E090932F016F5F60932E01880F8160BA
:101B00008093A4016093300180E062DF811103C003
:101B10008091A301089580E008950024552704C012
:101B2000080E591F880F991F009729F07695679521
:101B3000B8F37105B9F7802D952F0895AA1BBB1B2B
:101B400051E107C0AA1FBB1FA617B70710F0A61BBD
:101B5000B70B881F991F5A95A9F780959095BC01DE
:081B6000CD010895F894FFCFB8
:00000001FF
