:1000000036C445C4E5C443C45EC641C440C43FC40D
:100010003EC43DC4CCC93BC43AC439C438C40C81C5
:10002000018201830C842000100D10111016101194
:10003000100D101110161011100F101410181014AC
:10004000100F10141018101410121016101910168A
:100050001012101610191016101110141018101478
:100060001011101410181011100D1011101610117D
:10007000100D101110161011100F1014101810146C
:10008000100F10141018101410121016101910164A
:10009000101210161019101610151018101D101827
:1000A00010151018101D1021101F101B101F101BF1
:1000B000101F101B101F101B101B1018101B1018E6
:1000C000101B1018101B1018101D1019101D1019DE
:1000D000101D1019101D1019101B1016101B1016D2
:1000E000101B1016101B101620162011200D2011A9
:1000F0002014200F200C200F2011200C2008200C91
:100100001011100D100A100D2011200D100D1011DE
:1001100010161011100D101110161011100F1014D0
:1001200010181014100F10141018101410121016AC
:100130001019101610121016101910161011101494
:10014000101810141011101410181011100D101197
:1001500010161011100D101110161011100F101490
:1001600010181014100F101410181014101210166C
:10017000101910161012101610191016101510184C
:10018000101D101810151018101D1021101F101B15
:10019000101F101B101F101B101F101B101B1018FE
:1001A000101B1018101B1018101B1018101D101900
:1001B000101D1019101D1019101D1019101B1016EC
:1001C000101B1016101B1016101B101620162011D5
:1001D000200D20112014200F200C200F2011200CA6
:1001E0002008200C1011100D100A100D2011008590
:1001F000108104820283008420002016101620162D
:10020000201610162014101420142014101420127C
:100210001012201220121012201410142014201476
:100220001014201610162016201610162014101464
:100230002014201410142012101220122012101258
:10024000201110112011201110111018100C10186D
:10025000100C1018100C1018100C1018100C10188E
:10026000100C1018100C1018100C1019100D10197B
:10027000100D1019100D1019100D100F1003100F84
:100280001003100F1003100F100310161016101685
:100290002016101620161014101410142014101408
:1002A000201410111011101120111011201110160E
:1002B00010161016301620162016101620162016AE
:1002C00010162014101420142014101420121012D0
:1002D00020122012101220141014201420141014B4
:1002E0002016101620162016101620141014201494
:1002F000201410142012101220122012101220119B
:1003000010112011201110111018100C1018100CC1
:100310001018100C1018100C1018100C1018100CCD
:100320001018100C1018100C1019100D1019100DB9
:100330001019100D1019100D100F1003100F1003CD
:10034000100F1003100F10031016101610162016A1
:100350001016201610141014101420141014201449
:10036000101110111011201110112011101610165B
:1003700010163016008510810C8204830C840288CC
:100380002011301620192016101920183014200FB3
:100390001014401610141012100010146011200ACE
:1003A0003011200D1011100F100D300F200C200FE8
:1003B00010143012200D200F10124011401530186B
:1003C000201F201D101F401B2024201F101D101B4C
:1003D00020191020101D2019401B101F101B100089
:1003E000101F101910161000201920161019101BBC
:1003F0001018101420182014100F1011100C1000D9
:10040000200F20141011601620113016201920160C
:10041000101920183014200F101440161014101248
:10042000100010146011200A3011200D1011100F4F
:10043000100D300F200C200F10143012200D200F43
:100440001012401140153018201F201D101F401B96
:100450002024201F101D101B20191020101D2019F2
:10046000401B101F101B1000101F10191016100039
:10047000201920161019101B101810142018201401
:10048000100F1011100C1000200F20141011601606
:10049000008510810C820483008810011003100570
:1004A00010061008100A100C100D100F1011101269
:1004B0001014101610181019101B101D101E1020EB
:1004C00010221024102510271029102A102C102E6D
:1004D000103010311033103510361038103A103CEF
:1004E0000188108201831001100310051006100806
:1004F000100A100C100D100F1011101210141016FD
:1005000010181019101B101D101E1020102210247E
:10051000102510271029102A102C102E1030103101
:100520001033103510361038103A103C0182068313
:10053000028810011003100510061008100A100C94
:10054000100D100F10111012101410161018101991
:10055000101B101D101E1020102210241025102713
:100560001029102A102C102E103010311033103595
:1005700010361038103A103C008500000A011A01AC
:100580002B013F014F01640178019101A901C201D2
:10059000DB01F701180239025A028302A302CC02DE
:1005A000F502220353038503BA03F30331046E04F7
:1005B000B404F90447059505EB054506A3060A07AB
:1005C0007407E7075E08DD086409F3098B0A2B0B43
:1005D000D70B8B0C4B0D140EE90ECE0FC010BE11B5
:1005E000CC12EB131A155A16AE171619931A281CAB
:1005F000D21D991F0000F600E700DB00CD00C3000C
:10060000B700AD00A30099009100890082007A0034
:1006100073006C00650060005B00560051004C00E8
:100620004800440040003D003900360033003000EF
:100630002D002B00280026002400220020001E0090
:100640001C001B00190018001600150014001300F0
:100650001200110010000F000E000D000C000C0025
:100660000B000A000A000900090008000800000049
:100670004100450049004E00520057005C006200F6
:1006800068006E0074007B0083008B0093009D0067
:10069000A500AF00B900C400D000DC00E900F700FD
:1006A00006011501260137014A015D017201880129
:1006B0009F01B801D201EE010B022A024B026E0229
:1006C0009302BA02E40210033F037003A403DC03A5
:1006D000170455049704DD0427057505C805200691
:1006E0007D06E0064807B70700001103220632091D
:1006F000400C4D0F57125E156218631B5F1E56218A
:10070000492435271C2AFC2CD52FA73271353338C4
:10071000EC3A9C3D4340DF427245F947764AE74C4C
:100720004C4FA551F15331566358875A9E5CA65ED3
:10073000A0608B6266643266EF679B69376BC26C40
:100740003D6EA76FFF7046727C739F74B175B07673
:100750009E7778784179F679997A287BA57B0F7C0A
:10076000657CA97CD97CF67C007D0000F401E8035F
:10077000DC05D007C409B80BAC0DA00F9411881389
:100780007C1570176419581B4C1D401F34212823F9
:100790001C2510270429F82AEC2CE02ED430C8326E
:1007A000BC34B036A438983A8C3C803E74406842E1
:1007B0005C4450464448384A2C4C204E1450085251
:1007C000FC53F055E457D859CC5BC05DB45FA861C9
:1007D0009C639065846778696C6B606D546F487139
:1007E0003C733075247718790C7B007D00008813EA
:1007F0001027983A204EA86130751879007D007D49
:10080000007D007D007D007D007D007D007D007D00
:10081000007D007D007D007D007D007D007D007DF0
:10082000007D007D007D007D007D007D007D007DE0
:10083000007D007D007D007D007D007D007D007DD0
:10084000007D007D007D007D007D007D007D007DC0
:10085000007D007D007D007D007D007D007D007DB0
:10086000007D007D007D007D007D007D007D1124E8
:100870001FBECFE5D2E0DEBFCDBF21E0A0E6B0E0F5
:1008800001C01D92AF3DB207E1F71AD099C8B8CBAD
:1008900044E750E062E974E080E054C24EE850E082
:1008A00066E773E080E04ED243EC50E060EF71E029
:1008B00081E048D249EE50E06EE170E082E042C251
:1008C00060D064D068EE73E080E89EE32BD76DD2F1
:1008D0006EE474E080E02DD268E474E081E029D217
:1008E000A9D110919C017894C0E0D0E0FF24FA9443
:1008F000F10E80919301811117C069D095B7977E51
:10090000906195BF85B7806285BF889585B78F7DDB
:1009100085BF81E05CD02FEF86E791E021508040D9
:100920009040E1F700C0000080E039D08091930151
:10093000813051F410929301C11102C0CF2D01C03A
:10094000C1508C2FF8D01AC080919301823051F49D
:100950001092930101E00C0F8C2FEDD0011768F07D
:10096000C0E00CC08091930110929301833031F468
:100970008D2FB1D481E0D82701C0C02F80E00FD0E7
:10098000B8CFB998C198BB98C398089510929301B5
:1009900015BA8BB780628BBF8AE085BB089590E063
:1009A000282F22708170B19902C0882331F0B39949
:1009B00002C0222311F09F5F01C090E0EFE9FFE049
:1009C0003197F1F700C00000923368F3089508955D
:1009D0001F920F920FB60F9211248F93B1990BC0F3
:1009E0008091930180FD07C0809193018160809385
:1009F000930110929D01B3990BC08091930181FDE9
:100A000007C08091930182608093930110929D01B1
:100A10008F910F900FBE0F901F9018954F925F927D
:100A20006F927F92AF92BF92CF92DF92EF92FF923E
:100A30000F931F93CF93DF93182F062FC0E0D0E0C2
:100A4000DD2E35E0E32EF12C812F7BD68D2D80D647
:100A50008C2F7ED670D7882321F081E0E81AF10828
:100A600099F764E0812F72D780D6B82E64E0812F89
:100A70006DD724E0A22E40E050E0BA01452E562E5C
:100A8000672E772472D6C82ED12CE12CF12CFC2CA9
:100A9000EE24DD24CC24B701A601440D551D661DAE
:100AA000771DAA94A110EACF002351F041155105FA
:100AB0006105710519F02896C40FD51F0150C0CFEC
:100AC0008DE4B816B1F082E5B81226C0BE01685FA9
:100AD0007F4F812FDF91CF911F910F91FF90EF906A
:100AE000DF90CF90BF90AF907F906F905F904F90CE
:100AF0007BC5BE01685F7F4F812FDF91CF911F9132
:100B00000F91FF90EF90DF90CF90BF90AF907F90CC
:100B10006F905F904F90F5C3DF91CF911F910F9130
:100B2000FF90EF90DF90CF90BF90AF907F906F904D
:100B30005F904F900895682F24E931E0F9018E2FDE
:100B4000821B9191691710F0691BF9CF992311F05D
:100B5000805B64CF08954F925F926F927F92AF92C5
:100B6000BF92CF92DF92EF92FF920F931F93CF939A
:100B7000DF93B82E00E010E0C0E0D0E0DD2EE12CE5
:100B8000F12C8B2DDED58D2DE3D58C2FE1D58FEF7C
:100B9000E81AF80AD0D6882331F095E0E916F10476
:100BA00081F780E038C095E0E916F104A1F164E036
:100BB0008B2DCCD6DAD5823521F08D3411F0802FF3
:100BC0002AC064E08B2DC2D624E0A22E40E050E083
:100BD000BA01452E562E672E7724C7D5C82ED12CA4
:100BE000E12CF12CFC2CEE24DD24CC24B701A60151
:100BF000440D551D661D771DAA94A110EACF0F5F05
:100C00001F4F411551056105710509F4B7CF2896AD
:100C1000C40FD51FB3CFDF91CF911F910F91FF90DC
:100C2000EF90DF90CF90BF90AF907F906F905F90EC
:100C30004F9008950F931F93CF9304E911E0C0E5FF
:100C40008C2F89DFF80181938F0190919C01890F8E
:100C500080939C01CF5FC83599F7CF911F910F9179
:100C60000895BC9AC49A82E880BF80E68CBD8FEF5D
:100C70008DBD8BBD1FBC0895BC0110926400109205
:100C8000630080E09DE788D6609362001092610067
:100C900080E88093600089B7846089BF089590914F
:100CA00064009F5F9F71209163009217E1F3E92F29
:100CB000F0E0E256FE4F808390936400089589B778
:100CC0008B7F89BF08951F920F920FB60F92112448
:100CD0008F939F93EF93FF93809161008F5F809339
:100CE000610090916100809162009817C8F01092A5
:100CF00061009091640080916300981789F0E09101
:100D00006300F0E0E256FE4F8081809360008091A6
:100D100060008BBD809163008F5F8F718093630053
:100D2000FF91EF919F918F910F900FBE0F901F90A9
:100D30001895E82FF0E0EE0FFF1FEB59FF4F71837E
:100D400060830895CF93DF93DB01FA01282F30E011
:100D5000C90165E570E00FD686549F4FEC01B98359
:100D6000A883C90165E570E006D681549F4FDC0178
:100D70001196FC93EE93DF91CF91089580E090E07F
:100D8000FC0123E0EE0FFF1F2A95E1F7EC58FE4F20
:100D900010821382128216821182158214821782A7
:100DA00001968330910561F708955BDFE7DF80E00E
:100DB00090E0FC01EE0FFF1FEB59FF4F11821082F4
:100DC000019688309105A9F783E08ABD85E083BF4D
:100DD0008FEF89BD12BE0895EF920F93E82FF0E0D8
:100DE000DF0193E0AA0FBB1F9A95E1F7AC58BE4F05
:100DF000672B41F04C9313963C932E9312971696C3
:100E00000C9307C01C9213961C921E921297169672
:100E10001C9283E0EE0FFF1F8A95E1F7EC58FE4F1E
:100E2000118215821482E7820F91EF90089520E0DD
:100E300030E0A0E14FEFC90165E570E09CD58B582B
:100E40009F4FFC01EB5BFF4F1182108235961182A0
:100E5000108233971082319611821082349611825B
:100E600010823296A0833396408332964083349723
:100E70001082319610827097118210823296118200
:100E80001082329610822F5F3F4F2330310599F642
:100E900008959F92AF92BF92CF92DF92EF92FF920E
:100EA0000F931F93CF93DF93EB01082F10E0C8013E
:100EB00065E570E060D59C012B583F4FF901EB5B75
:100EC000FF4F80819181892B09F460C0209709F43C
:100ED000E4C0C80165E570E04ED5BC016B587F4F9A
:100EE000FB01EE5BFF4F40815181329720813181C0
:100EF0002F5F3F4F2F7133274217530709F4CDC09F
:100F00002197408151819A012F5F3F4F3183208388
:100F1000FB01EB5BFF4FC080D180DB01A45BBF4FC7
:100F20002D913C9111977901EFEFEE1AFE0A11967F
:100F3000FC92EE92220F331FF601E20FF31F259170
:100F40003491440F551F840F951FFC01EB58FF4F40
:100F5000318320832D913C911197FB01E65BFF4F7C
:100F6000808191812817390718F011961C921E92E2
:100F7000C80165E570E0FFD4FC01EB54FF4F208110
:100F800031812F71332731832083A0CFF901E85BB2
:100F9000FF4F80819181892B09F47FC0D901A95B22
:100FA000BF4FDC90808191811596ED90FC90119758
:100FB000EE0CFF1CE80EF91E3296208131818D91D6
:100FC0009C911197281B390B2C173D0730F4C081D9
:100FD000D1818D919C91C81BD90BCF2C8D2DB1D374
:100FE0008C2DB6D38E2DB4D3A6D48111F7CF6C2F10
:100FF000660F8D2DABD4209709F44FC0C80165E56D
:1010000070E0B9D45C018B589F4F6C01FC01EE5B22
:10101000FF4F808191813297208131812F5F3F4F37
:101020002F71332782179307C1F12197E080F18058
:10103000C70101969183808398D3982E96D3292D4A
:1010400030E0382BEE0CFF1CF701EA0DFB1DEB58CE
:10105000FF4F31832083F601E45BFF4F8081918154
:1010600001969183808320813181D601A65BBF4F99
:101070008D919C912817390710F011821082C801B8
:1010800065E570E078D4FC01EB54FF4F208131819D
:101090002F71332731832083AECFDF91CF911F9102
:1010A0000F91FF90EF90DF90CF90BF90AF909F9007
:1010B00008956F927F928F929F92AF92BF92CF923C
:1010C000DF92EF92FF920F931F93CF93DF9360E233
:1010D00070E080E0DEDE60E270E081E0DADE60E2B7
:1010E00070E082E0D6DE4ADE81E080939D0180E8F8
:1010F0009EE3C2DD89B7806189BFC0E0812C90E8A2
:10110000992EE12CFF24F39430E8C32ED12C80914A
:101110009D01882309F4CDC0409164004F5F4F7159
:1011200080916300481709F4B9C000E010E0A12CD9
:10113000B12C380183E0660C771C8A95E1F79301A6
:101140002C583E4FD90112968D919C911397892B63
:1011500009F495C014968D919C911597E92FFF275E
:10116000DE2FE13418F417968C9110C0D901179630
:101170008C91E13810F4960106C0E13C18F4E05877
:10118000F10904C097012E1B3F0BF90190E061E4C7
:1011900070E0F1D38E0F9F1FFC01EE0FFF1FE8518F
:1011A000F94F25913491F301EC58FE4F568150319F
:1011B00091F1552371F153FF04C0B90176956795FC
:1011C00002C060E070E052FF06C0C90196958795A5
:1011D0009695879502C080E090E0680F791F51FFD7
:1011E00007C0C901E3E096958795EA95E1F702C04B
:1011F00080E090E0860F971F50FF06C054E03695C0
:1012000027955A95E1F702C020E030E0280F391FFA
:1012100002C020E030E0D13810F4305804C0C401DE
:10122000821B930B9C013695279536952795A20E28
:10123000B31ED301AC58BE4F11968C9111978F5F9E
:1012400011968C93119711969C9111978C919817E8
:1012500040F011961C92119715961C921E921497AD
:101260000EC012968D919C91139714962D913C91DE
:101270001597820F931F15969C938E9314970F5F6B
:101280001F4F0330110509F054CFE42FF0E0E25670
:10129000FE4FB08240936400DC2F09C0D1E0DC0F28
:1012A00068E070E08C2FF5DDD33008F0D0E0CD2F72
:1012B0002ECF89B78F7E89BFDF91CF911F910F917C
:1012C000FF90EF90DF90CF90BF90AF909F908F9066
:1012D0007F906F90F4CCCF93DF931F92CDB7DEB7A2
:1012E0008983A5DD8981E82FF0E0EE0FFF1FEB5920
:1012F000FF4F0190F081E02D09950F90DF91CF9184
:10130000D8CEDF92EF92FF920F931F93CF93DF938C
:10131000F82EEB018CDD1D2F8F2D13D2812F18D2CB
:101320008C2F16D208D38111F7CF61E08F2D0ED309
:1013300021961BD2E82E00E010E00E1580F5DD2E80
:101340008F2DFFD18D2D04D28C2F02D2F4D281119A
:10135000F7CF62E08F2DFAD2229607D2D82E05D28F
:10136000282F30E0322F22272D0D311DC80165E5D1
:1013700070E001D3AC014B585F4FFA01E95BFF4FBE
:10138000F0823196D183C083C901969587953296B4
:1013900091838083C20FD31F0F5F1F4FCECFDF918A
:1013A000CF911F910F91FF90EF90DF9082CE1F920F
:1013B0000F920FB60F921124CF92DF92EF920F93FC
:1013C0001F932F933F934F935F936F937F938F93CD
:1013D0009F93AF93BF93CF93DF93EF93FF93C0E0BF
:1013E000D0E01C2FCE0165E570E0C5D28B589F4F31
:1013F000FC01EC5BFF4F2081211199C03696808162
:101400009181892B09F493C0CE0165E570E0B3D2D8
:101410009C012B583F4FF901EC5BFF4F408141117C
:10142000C6C0F901EE5BFF4F0190F081E02DEE0F99
:10143000FF1F8E0F9F1FFC01EB58FF4F8081918192
:10144000492F552747FF2EC04F7743305105E1F014
:101450005CF441305105A1F04230510509F057C00C
:10146000F901EF5AFF4F13C045305105C1F094F018
:101470004830510509F04BC0F901E05BFF4F0DC04A
:10148000F901E25BFF4F09C0F901ED5AFF4F80837C
:1014900031963CC0F901E15BFF4F808338C0109268
:1014A0009D0135C0E42F442331F0F901E15BFF4F8A
:1014B0006081E62FE40F2FEF280FCE0165E570E085
:1014C0005AD28B589F4F6C01DC01AC5BBF4F2C9301
:1014D0001C96EC9012970C916E2F70E0660F771FA0
:1014E000FB01E658FA4F25913491FB01EC50FA4F7D
:1014F00045915491FB01E259F94F65917491812F07
:101500006BDCF601EC5AFF4F108232971082CE014D
:1015100065E570E030D2FC01E954FF4F2081318154
:101520002F5F3F4F2F713327318320836DCFCE0143
:1015300065E570E020D29C012B583F4FF901EC5B30
:10154000FF4F4081415040833E965081D901AF5AB0
:10155000BF4F4C91541728F1DE0143E0AA0FBB1F87
:101560004A95E1F7AC58BE4F16964C911697442316
:10157000F1F0A9014C5A5F4FFA0160813197208147
:10158000FA01621740F0108216968C9116978150DE
:1015900016968C930CC020812F5FFC01E753FF4F00
:1015A00005C020812F5FFC01E953FF4F2083219666
:1015B000C330D10509F015CFFF91EF91DF91CF91A5
:1015C000BF91AF919F918F917F916F915F914F915B
:1015D0003F912F911F910F91EF90DF90CF900F903F
:1015E0000FBE0F901F9018958F929F92AF92BF924F
:1015F000CF92DF92EF92FF92CF93DF93C82FD62F37
:10160000F72E8C2F9ED08F2DA3D08D2FA1D093D1CC
:101610008111F7CF64E08C2F99D164E08C2F96D1A3
:1016200064E08C2F93D162E08C2F90D162E08C2FFC
:101630008DD164E08C2F8AD1D4E0812C912C54017F
:10164000892C9A2CAB2CBB2490D090E0A0E0B0E089
:10165000B82FAA2799278827880E991EAA1EBB1E75
:10166000D15071F764E08C2F71D162E08C2F6ED174
:1016700062E08C2F6BD164E08C2F68D164E08C2FFA
:1016800065D1D4E0C12CD12C7601CD2CDE2CEF2CF1
:10169000FF246BD090E0A0E0B0E0B82FAA279927F4
:1016A0008827C80ED91EEA1EFB1ED15071F7C4014F
:1016B000E3DA81E080939D0180919D018823B9F058
:1016C00060E28C2F43D1D0E250D0E9DAD150E1F77B
:1016D00080E2C816D104E104F10418F410929D01CF
:1016E000EBCF80E2C81AD108E108F108E5CFDF911D
:1016F000CF91FF90EF90DF90CF90BF90AF909F90F1
:101700008F90DDCA87B3856087BB88B3856088BB4F
:1017100087B3856087BB8FEF8FB98AE28DB980EF81
:101720008EB9089539D184E0769567958A95E1F769
:1017300070939201609391017093900160938F0177
:10174000E1CF91E090938E01880F8093BF010895BF
:10175000E0918E01E03240F491E09E0F90938E0173
:10176000F0E0E154FE4F80830895E0918D0181E027
:101770008E0F80938D01F0E0E154FE4F808108953B
:10178000009719F000000197FBCF0895CF93CBE2AB
:1017900080918F0190919001F3DFCDB9B29BFECF84
:1017A0008091910190919201EBDFCDB9769BF0CFC2
:1017B00080918F0190919001E3DF8FB19FEF9FB9EE
:1017C000B89ACF910895C29AC29BFECF80918F01A3
:1017D00090919001D5DFC0988091910190919201F4
:1017E000CFDFC298C09A779905C083E08093BE018D
:1017F00080E0089581E00895C098C29AB29BFECF20
:101800008091910190919201BBDFC09A80918F01EC
:1018100090919001B5DF9EB1892F807295FD04C033
:1018200094E09093BE01089581E00895AF92BF9235
:10183000CF92DF92EF92FF920F931F93CF93DF939C
:10184000F82E10918E0181E08093BE018091BF013E
:1018500080FD03C083E08093BE01B5DF882349F19A
:10186000CFEBD1E080EFE82E0EEFBB24BA94AA2490
:10187000A3949091BE0193709E012F5F3F4F690129
:10188000992391F188818FB9B89AEEB87FDFB89823
:101890001FB80EB97BDF9091BE0180FF0CC090FF96
:1018A00002C081E001C082E08093BE01F11001C05E
:1018B000A3DF90E034C0892F8570843089F41091C3
:1018C0008E019091BF0191609093BF01A092BE01E3
:1018D0007ADF982F811116C08AE08093BE011FC065
:1018E0009E7F9093BE010CC0B898EEB84FDF8883FE
:1018F000113011F4BFB801C01FB8B89A0EB946DF55
:10190000E60102C0CFEBD1E0115009F0B2CFF110E7
:1019100005C072DF91E0811102C0CBCF91E0892F29
:10192000DF91CF911F910F91FF90EF90DF90CF90BB
:10193000BF90AF90089580E079DF10928E018823E8
:1019400011F080E008958091BE01089591E0909398
:101950008D016F5F60938C01880F81608093BF0160
:1019600060938E0180E062DF811103C08091BE012F
:10197000089580E008950024552704C0080E591FDB
:10198000880F991F009729F076956795B8F3710530
:10199000B9F7802D952F0895AA1BBB1B51E107C0F5
:1019A000AA1FBB1FA617B70710F0A61BB70B881FEF
:1019B000991F5A95A9F780959095BC01CD0108957E
:0419C000F894FFCFC9
:00000001FF
