:1000000012C021C086C11FC01EC01DC01CC01BC0A5
:100010001AC019C018C017C016C015C014C013C02C
:1000200012C011C010C011241FBECFE5D2E0DEBF48
:10003000CDBF20E0A0E6B0E001C01D92A536B2071A
:10004000E1F702D0D7C1DCCF35D04AE06EE182E3E0
:1000500074D078948091630090916400892B59F456
:1000600085B7877E806185BF85B7806285BF8895AB
:1000700085B78F7D85BF80E090E066D043D188232F
:1000800011F080E0CED0209163003091640081E0D7
:1000900020FD07C08F5F369527958131C9F7232B47
:1000A00009F0BFD0109264001092630080E090E0ED
:1000B0004BD0D0CF109264001092630084E68093FE
:1000C00060008093610080936200D098D89AD198A4
:1000D000D99AD298DA9AD398DB9AD498DC9AD598A0
:1000E000DD9AD698DE9AD798DF9ABE98C69ABC9ABF
:1000F000C49ABD9AC59ABB9813BC12BC8BB78062D8
:100100008BBF83B5816083BD83B5826083BD83B5BA
:10011000846083BD83B5886083BD83B5806183BD02
:1001200083B5806283BD83B5806483BD83B58068F9
:1001300083BD82B5806482BD089580936100609321
:100140006000409362000895AF92BF92CF92DF9219
:10015000EF92FF920F931F93CF93DF939C0190E058
:10016000A90144275170B90160787727590180E4CB
:10017000A822BB24D901A072BB27E901C071DD27E9
:100180008901087011277901E4E0EE22FF2469015A
:10019000F2E0CF22DD24217033278091610098178F
:1001A000A8F5C89903C02115310541F1C99903C0CB
:1001B000C114D10419F1CA9903C0E114F104F1F09A
:1001C000CB9903C001151105C9F0CC9902C0209745
:1001D000A9F0CD9902C0109789F0CE9903C0A1145F
:1001E000B10461F0CF9903C06115710539F0B6997A
:1001F00003C04115510511F09F5F01C090E0E9EF88
:10020000F0E03197F1F700C00000C7CFDF91CF9148
:100210001F910F91FF90EF90DF90CF90BF90AF9024
:100220000895C59AC49890E020916000921740F418
:10023000E9EFF0E03197F1F700C000009F5FF4CFE5
:1002400090E020916200492F50E030E0220F331FF0
:100250004217530744F4E9EFF0E03197F1F700C09B
:1002600000009F5FEECF90E0981751F1C59860E0D5
:1002700020916200462F50E030E0220F331F4217DA
:10028000530744F4E9EFF0E03197F1F700C00000C4
:100290006F5FEECFC59A60E020916200462F50E07C
:1002A00030E0220F331F4217530744F4E9EFF0E028
:1002B0003197F1F700C000006F5FEECF9F5FD4CFA2
:1002C000C49A40E080916200242F30E090E0880FD3
:1002D000991F2817390744F489EF90E00197F1F747
:1002E00000C000004F5FEECF80E090916000891762
:1002F00040F4E9EFF0E03197F1F700C000008F5FC4
:10030000F4CF089586B383FB882780F991E089278D
:1003100008951F920F920FB60F9211248F939F93FF
:10032000C89909C0809163009091640081609093A6
:10033000640080936300C99909C080916300909123
:10034000640082609093640080936300CA9909C03E
:100350008091630090916400846090936400809326
:100360006300CB9909C0809163009091640088601C
:100370009093640080936300CC9909C080916300DE
:100380009091640080619093640080936300CD99A4
:1003900009C0809163009091640080629093640032
:1003A00080936300CE9909C08091630090916400AE
:1003B00080649093640080936300CF9909C080911A
:1003C0006300909164008068909364008093630060
:1003D000B69909C0809163009091640091609093F8
:1003E0006400809363009F918F910F900FBE0F90D8
:0803F0001F901895F894FFCF4F
:00000001FF
