:100000003EC34DC355C74BC34AC3A3C848C347C328
:1000100046C345C344C343C342C341C359CB3FC393
:100020003EC33DC33CC38BC5A3C5BBC5D3C5EBC550
:1000300003C61AC631C6CFC6D8C6E1C6EAC6F3C6DD
:10004000FCC605C70EC798CBA0CBA8CBB1CBC8CBFD
:10005000B8CBB9CBBCCB00000A011A012B013F0180
:100060004F01640178019101A901C201DB01F7018F
:10007000180239025A028302A302CC02F5022203BB
:1000800053038503BA03F30331046E04B404F90483
:1000900047059505EB054506A3060A077407E7071C
:1000A0005E08DD086409F3098B0A2B0BD70B8B0C58
:1000B0004B0D140EE90ECE0FC010BE11CC12EB1377
:1000C0001A155A16AE171619931A281CD21D991F05
:1000D0000000F600E700DB00CD00C300B700AD0074
:1000E000A30099009100890082007A0073006C00DF
:1000F000650060005B00560051004C004800440061
:1001000040003D0039003600330030002D002B0048
:10011000280026002400220020001E001C001B00D6
:100120001900180016001500140013001200110029
:1001300010000F000E000D000C000C000B000A0058
:100140000A000900090008000800000041004500FD
:1001500049004E00520057005C00620068006E00CB
:1001600074007B0083008B0093009D00A500AF000E
:10017000B900C400D000DC00E900F7000601150159
:10018000260137014A015D01720188019F01B80112
:10019000D201EE010B022A024B026E029302BA0256
:1001A000E40210033F037003A403DC0317045504A7
:1001B0009704DD0427057505C80520067D06E006C1
:1001C0004807B7070000110322063209400C4D0F03
:1001D00057125E156218631B5F1E5621492435278E
:1001E0001C2AFC2CD52FA73271353338EC3A9C3DB4
:1001F0004340DF427245F947764AE74C4C4FA551E0
:10020000F15331566358875A9E5CA65EA0608B629C
:1002100066643266EF679B69376BC26C3D6EA76F91
:10022000FF7046727C739F74B175B0769E77787854
:100230004179F679997A287BA57B0F7C657CA97C2E
:10024000D97CF67C007DF67CD97CA97C657C0F7C12
:10025000A57B287B997AF679417978789E77B07674
:10026000B1759F747C734672FF70A76F3D6EC26C50
:10027000376B9B69EF67326666648B62A060A65E2F
:100280009E5C875A63583156F153A5514C4FE74C49
:10029000764AF9477245DF4243409C3DEC3A333899
:1002A0007135A732D52FFC2C1C2A3527492456211D
:1002B0005F1E631B62185E1557124D0F400C32090A
:1002C0002206110300000000F401E803DC05D0075A
:1002D000C409B80BAC0DA00F941188137C157017CE
:1002E0006419581B4C1D401F342128231C2510273E
:1002F0000429F82AEC2CE02ED430C832BC34B036B5
:10030000A438983A8C3C803E744068425C44504625
:100310004448384A2C4C204E14500852FC53F05597
:10032000E457D859CC5BC05DB45FA8619C6390650D
:10033000846778696C6B606D546F48713C7330757D
:10034000247718790C7B007D0C7B18792477307525
:100350003C734871546F606D6C6B7869846790650D
:100360009C63A861B45FC05DCC5BD859E457F0557D
:10037000FC5308521450204E2C4C384A44485046E6
:100380005C4468427440803E8C3C983AA438B03655
:10039000BC34C832D430E02EEC2CF82A04291027C3
:1003A0001C2528233421401F4C1D581B641970172D
:1003B0007C1588139411A00FAC0DB80BC409D0079D
:1003C000DC05E803F4010000000088131027983AC8
:1003D000204EA86130751879007D007D007D007D7C
:1003E000007D007D007D007D007D007D007D007D25
:1003F000007D007D007D007D007D007D007D007D15
:10040000007D007D007D007D007D007D007D007D04
:10041000007D007D007D007D007D007D007D007DF4
:10042000007D007D007D007D007D007D007D007DE4
:10043000007D007D007D007D007D007D007D007DD4
:10044000007D007D007D007D007D007D007D007DC4
:10045000007D007D007D007D007D007D007D007DB4
:10046000007D007D007D007D007D007D007D007DA4
:10047000007D007D007D007D007D007D007D007D94
:10048000007D007D007D007D007D007D007D007D84
:10049000007D007D007D007D007D007D007D007D74
:1004A000007D007D007D007D007D007D007D007D64
:1004B000007D007D007D007D007D18793075A8618C
:1004C000204E983A1027881300000000FA00F4012B
:1004D000EE02E803E204DC05D606D007CA08C40928
:1004E000BE0AB80BB20CAC0DA60EA00F9A10941158
:1004F0008E12881382147C15761670176A18641988
:100500005E1A581B521C4C1D461E401F3A203421B7
:100510002E22282322241C25162610270A280429E7
:10052000FE29F82AF22BEC2CE62DE02EDA2FD4301F
:10053000CE31C832C233BC34B635B036AA37A4384F
:100540009E39983A923B8C3C863D803E7A3F74407F
:100550006E41684262435C44564550464A474448AF
:100560003E49384A324B2C4C264D204E1A4F1450DF
:100570000E5108520253FC53F654F055EA56E45714
:10058000DE58D859D25ACC5BC65CC05DBA5EB45F47
:10059000AE60A861A2629C63966490658A66846777
:1005A0007E687869726A6C6B666C606D5A6E546FA7
:1005B0004E70487142723C73367430752A762477D7
:1005C0001E781879127A0C7B067C007D07000800E3
:1005D00009000A000B000C000D000E0010001100B5
:1005E00013001500170019001C001F002200250031
:1005F00029002D00320037003C0042004900500025
:10060000580061006B00760082008F009D00AD00F5
:10061000BE00D100E600FD00170133015101730156
:100620009801C101EE01200256029202D4021C037D
:100630006C03C30324048E04020583051006AB0675
:1006400056071208E008C309BD0AD00BFF0C4C0E78
:10065000BA0F4C110713EE1406175419DC1BA51E14
:10066000B6211525CA28DF2C5B314B36B93BB24188
:1006700044487E4F71572F60CE696274FF7F11240A
:100680001FBECFE5D2E0DEBFCDBF21E0A0E6B0E0E7
:1006900001C01D92A33DB207E1F775D111CCB0CCDA
:1006A000CF93DF93B1DAC0E5D5E08C2FBCDA80E0E0
:1006B000C1DA80E0BFDAB7DB882351F0D150A9F767
:1006C000CF5FC83589F780916400DF91CF9108959D
:1006D000E091640081E08E0F80936400F0E0E35DC0
:1006E000FE4FC083EDCFCF92DF92EF92FF920F9338
:1006F0001F93CF93DF9300D0CDB7DEB7F62EC82E71
:10070000082F10E0E72E85E0D82E035D1E4FF8017C
:10071000808179839A8387DA8E2D8CDA8F2D8ADA1D
:1007200082DB79819A81882319F0DA94D110EFCF96
:10073000F092600070936100C09262009093630039
:100740000F900F90DF91CF911F910F91FF90EF903D
:10075000DF90CF9008958F929F92AF92BF92CF92E9
:10076000DF92EF92FF920F931F93CF931092660048
:1007700010926500813208F080E2009160001091D3
:100780006100209162003091630068017901C80E18
:10079000D11CE11CF11C4601570180269126A2269E
:1007A000B32688249924BB24A901662777278928A2
:1007B0008A288B2899F550E0FA01E35DFE4F682FF7
:1007C00080813CDB882311F080E061C04BDA082F88
:1007D00010E01017C1F0C091650081E08C0F80938C
:1007E000650035DAEC2FF0E0EB5CFE4F80831F5F95
:1007F000F0CFC701B60166277727992774DF8111EB
:10080000E3CFC11028C0C0926000D0926100E09296
:100810006200F09263008091650039C0019550E05C
:10082000FA01E35DFE4F602F808108DB8111CCCFA0
:1008300019DA082F10E01017E1F2C091650081E08D
:100840008C0F8093650003DAEC2FF0E0EB5CFE4F39
:1008500080831F5FF0CFEE2DF0E0E35DFE4F6C2D47
:100860008081ECDA8111B0CFFDD9082F10E010178C
:1008700051F2C091650081E08C0F80936500E7D94B
:10088000EC2FF0E0EB5CFE4F80831F5FF0CFCF9149
:100890001F910F91FF90EF90DF90CF90BF90AF909E
:1008A0009F908F900895E091660081E08E0F809375
:1008B0006600F0E0EB5CFE4F80810895CF93F3DF9C
:1008C000C82FF1DF282F30E0922F88278C0F911D41
:1008D000CF910895CF92DF92EF92FF92CF93E3DF13
:1008E000C82FE1DFC82EDFDFD12CE12CF12CFE2C4C
:1008F000ED2CDC2CCC24482F50E060E070E0BA01F5
:1009000055274427C40ED51EE61EF71ECC0ED11C5B
:10091000E11CF11CC8DF90E0A0E0B0E0B82FAA27EE
:1009200099278827BC01CD016C0D7D1D8E1D9F1D53
:10093000CF91FF90EF90DF90CF90089520E030E0CE
:1009400090E0281748F4F901E359FE4F4081940FD5
:100950009F5F2F5F3F4FF5CF392FE82FF0E0DF018A
:10096000A359BE4F8C91EB5AFE4F2081290F8F5F08
:10097000890F281708F4922F892F831B8F5F80839C
:10098000892F90E00895E199FECF80E090E090DA21
:10099000182FA3D1C1E0D0E00C2F0150E199FECF78
:1009A000CE0186DA682F802FB6D02196C930D105C6
:1009B00099F768EE73E080E89EE372DE17D4B4D254
:1009C000E5E5F1E08CE08E0F11928E13FDCF123031
:1009D00011F485E001C082E39AD17894D0E0C0E0C0
:1009E00080916301811117C05DD295B7977E9061A8
:1009F00095BF85B7806285BF889585B78F7D85BF98
:100A000081E050D22FEF86E791E021508040904066
:100A1000E1F700C000001330C9F01430E9F580910F
:100A200063018823B1F160E080E0ABD1D091630134
:100A3000D150109263018D2F81DFC82F80918D01DD
:100A4000C81728F180918D01C81BF8CF80916301F0
:100A50008823F9F060E080E094D1D0E080916301D8
:100A600080FD08C0DF5F80916301869580936301FC
:100A7000DC30A1F7109263018D2F60DFC82F8091C9
:100A80008D01C81720F080918D01C81BF8CF6C2F05
:100A900038C0109263013BC060E080E072D1809169
:100AA0006301813089F480918E01882369F010926E
:100AB000630101E00D0F6D2F81E0B3D280918E01B3
:100AC000081710F1D0E023C080916301823089F4CF
:100AD00080918F01882369F01092630101E00C0F6F
:100AE0006C2F82E09ED280918F01081778F0C0E0D1
:100AF0000EC08091630110926301833041F46091D4
:100B00006D0180E08ED203C0D02F01C0C02F60E005
:100B100080E037D165CF0F931F93082F10E0083086
:100B2000110508F0D2C0F801ED5EFF4F462F41706D
:100B3000362F3270262F2470962F98700994D098F3
:100B4000D898411101C0D09A311101C0D89A2223FE
:100B500041F020916C01216020936C0123B521604C
:100B600023BD992309F4B1C0909161019160ABC09C
:100B7000D198D998411101C0D19A311101C0D99AA7
:100B8000222341F020916C01226020936C0123B557
:100B9000226023BD992309F498C09091610192606D
:100BA00092C0D298DA98411101C0D29A311101C095
:100BB000DA9A222341F020916C01246020936C0189
:100BC00023B5246023BD992309F47FC0909161016E
:100BD000946079C0D398DB98411101C0D39A311148
:100BE00001C0DB9A222341F020916C012860209300
:100BF0006C0123B5286023BD992309F466C0909148
:100C00006101986060C0D498DC98411101C0D49A09
:100C1000311101C0DC9A222341F020916C01206146
:100C200020936C0123B5206123BD992309F44DC0A5
:100C300090916101906147C0D598DD98411101C044
:100C4000D59A311101C0DD9A222341F020916C0127
:100C5000206220936C0123B5206223BD9923A9F162
:100C60009091610190622FC0D698DE98411101C029
:100C7000D69A311101C0DE9A222341F020916C01F5
:100C8000206420936C0123B5206423BD9923E9F0EF
:100C900090916101906417C0D798DF98411101C00D
:100CA000D79A311101C0DF9A222341F020916C01C3
:100CB000206820936C0123B5206823BD992329F077
:100CC00090916101906890936101E82FF0E0EC59F8
:100CD000FE4F60831F910F910895CF93109263018F
:100CE00010926C011092610184E680936201C0E071
:100CF00061EF8C2F10DFCF5FC830D1F7BE9AC69856
:100D000013BC12BC8BB780628BBFCF9108958093C8
:100D1000620108958091640180FF04C089B38095C9
:100D2000817001C080E09091650190FF02C0C99B75
:100D300082609091660190FF02C0CA9B846090918E
:100D4000670190FF02C0CB9B88609091680190FF83
:100D500002C0CC9B80619091690190FF02C0CD9B45
:100D6000806290916A0190FF02C0CE9B8064909156
:100D70006B0190FF02C0CF9B806890916101892335
:100D800008951F93CF93DF93D62FD095813011F420
:100D90001D2F01C010E0C0E080916201C81770F4FF
:100DA000B9DF8D23811302C0CF5F01C0C0E08FE99E
:100DB0009FE00197F1F700C00000EECFDF91CF91E7
:100DC0001F91089590E08830910508F053C0FC0110
:100DD000E55EFF4F09948091640180FD4BC066235E
:100DE00011F0D89A0895D89808958091650180FDF2
:100DF00041C0662311F0D99A0895D9980895809139
:100E0000660180FD37C0662311F0DA9A0895DA98FA
:100E100008958091670180FD2DC0662311F0DB9A53
:100E20000895DB9808958091680180FD23C06623B2
:100E300011F0DC9A0895DC9808958091690180FD95
:100E400019C0662311F0DD9A0895DD980895809108
:100E50006A0180FD0FC0662311F0DE9A0895DE98C6
:100E6000089580916B0180FD05C0662311F0DF9A23
:100E70000895DF980895CF93DF93C0E0D0E060E05D
:100E80008C2FA0DFFE01EC59FE4F808181FD03C055
:100E900061E08C2F97DF2196C830D10581F7DF9173
:100EA000CF910895882311F0C6980895C69A0895A1
:100EB0001F920F920FB60F9211242F933F934F93CF
:100EC0005F936F937F938F939F93AF93BF93EF93B2
:100ED000FF9320DF90916301909589239091900179
:100EE000911103C0909163010BC090916C01982304
:100EF00051F01092900120916C0190916301822336
:100F0000892B80936301FF91EF91BF91AF919F91E6
:100F10008F917F916F915F914F913F912F910F90A2
:100F20000FBE0F901F9018958F929F92AF92BF9215
:100F3000CF92DF92EF92FF920F931F93CF9380E0B7
:100F400090E0FC01E359FE4F10820196803291053A
:100F5000C1F710928D0110928E0110928F01C12C59
:100F6000D12C7601C701B601BEDB81114EC084E0F1
:100F7000F2DB99DCC82F8D3421F08D7F803509F0AC
:100F800044C084E0E8DBA6DC4B015C01C235C9F457
:100F900080918D018F5F80938D0180918E018F5F95
:100FA00080938E0181149104A104B104D9F288E0E8
:100FB000C80ED11CE11CF11CC80CD91CEA1CFB1C7E
:100FC000D1CFCD3459F480918D018F5F80938D0105
:100FD00080918F018F5F80938F01E4CFC03511F72F
:100FE000862FB9DBC0E08C2F90E0A0E0B0E0881540
:100FF0009905AA05BB05B0F60C2F10E054DCF801EA
:10100000E359FE4F8083CF5FEECFCF911F910F91B9
:10101000FF90EF90DF90CF90BF90AF909F908F9018
:101020000895CF92DF92EF92FF921F93CF93DF93B9
:10103000182FC62FC12CD12C7601C701B60153DB66
:1010400081114DC084E087DB2EDCD82F8D34B1F0C8
:101050008D7F803599F0DD34A1F1D23509F03FC0A4
:10106000C701B601685F7F4F8F4F9F4FDF91CF91D0
:101070001F91FF90EF90DF90CF90C4C484E06BDBB2
:1010800029DCD03549F0123019F4DD3429F405C0DB
:10109000113019F4D23509F0CF5F2FEF2C0FCC238C
:1010A000D1F2611571058105910549F038E0C30E53
:1010B000D11CE11CF11CC60ED71EE81EF91EC22F62
:1010C000BCCFC701B601685F7F4F8F4F9F4FDF9145
:1010D000CF911F91FF90EF90DF90CF90A9C2DF9149
:1010E000CF911F91FF90EF90DF90CF900895BB9A22
:1010F000C39A82E08FBD81E280BF8FEF8BBD8CBD34
:101100001EBC0895BC0110926B0010926A0080E032
:101110009DE7BAD6609369001092680080E88093DA
:10112000670089B7846089BF089590916B009F5FC5
:101130009F7120916A009217E1F3E92FF0E0EF56DA
:10114000FE4F808390936B00089589B78B7F89BF92
:1011500008951F920F920FB60F9211248F939F93B1
:10116000EF93FF93809168008F5F80936800909168
:101170006800809169009817C8F0109268009091FB
:101180006B0080916A00981789F0E0916A00F0E0A6
:10119000EF56FE4F808180936700809167008CBD81
:1011A00080916A008F5F8F7180936A00FF91EF9149
:1011B0009F918F910F900FBE0F901F90189580E018
:1011C00090E0FC0123E0EE0FFF1F2A95E1F7E25FBC
:1011D000FE4F1082138212821682118215821482AF
:1011E000178201968330910561F7089580DFE7DF6C
:1011F00081E085BB85E083BF8FEF83BB12BE08957E
:10120000EF920F9390E0FC0153E0EE0FFF1F5A9511
:10121000E1F7E25FFE4F672B29F04083338322839F
:10122000068307C0108213821282168211821582F1
:10123000148223E0880F991F2A95E1F7FC01E25FF1
:10124000FE4FE7820F91EF90089520E030E0A0E19B
:101250004FEFC90166E370E006D6FC01E459FF4F89
:1012600016A215A214A613A617A210A611A612A6BE
:1012700016A615A6A7A742AB44AB10AA11AA11A2A5
:1012800010A213A212A214A22F5F3F4F23303105E8
:1012900001F70895CF92DF92EF92FF920F931F9381
:1012A000CF93DF93EB01082F10E0C80166E370E0F5
:1012B000DAD5FC01E459FF4F85A196A1892B09F4E9
:1012C00062C0209709F4D4C0C80166E370E0CBD5B2
:1012D000DC01A459BF4F92962D913C919397909623
:1012E0008D919C91919701968F70992728173907B6
:1012F00009F4BEC021979096ED90FC909197C7019C
:10130000019691969C938E9390979596ED91FC9172
:1013100096979D962D913C919E97C90101969E9618
:101320009C938E939D97220F331FE20FF31F2591FD
:101330003491C8016BE170E096D58E0D9F1DFC01C4
:10134000EE0FFF1FE459FF4F318320839D962D91AF
:101350003C919E979B968D919C919C97281739075D
:1013600020F09E961C921E929D97C80166E370E045
:101370007AD5FC01E459FF4F20A131A12F7033270A
:1013800031A320A39ECF87A190A5A1A5B2A5892BAB
:101390008A2B8B2B09F46CC087A190A5A1A5B2A5BF
:1013A00025A536A5220F331FBC01CD01620F731F87
:1013B000811D911D23A534A545A556A5241B350BDC
:1013C0002C173D0730F4C3A5D4A525A536A5C21B0F
:1013D000D30B89D981114CC08C2F880FBCD9209791
:1013E00009F446C0C80166E370E03DD584599F4FBB
:1013F0007C01FC0122A133A180A191A101968F70F3
:10140000992728173907A1F12197F701C0A0D1A08A
:10141000C601019691A380A351DA9C01C8016BE13A
:1014200070E021D58C0D9D1DFC01EE0FFF1FE459CE
:10143000FF4F31832083F70185A596A5019696A7D6
:1014400085A725A536A583A594A52817390710F0EB
:1014500016A615A6C80166E370E005D5FC01E4599F
:10146000FF4F20A131A12F70332731A320A3B7CF85
:10147000DF91CF911F910F91FF90EF90DF90CF9070
:101480000895CF92DF92EF92FF920F931F93CF9325
:10149000DF9360E170E080E0FDDE60E170E081E01C
:1014A000F9DE60E170E082E0F5DE89DE81E08093C4
:1014B000900180E89EE326DE89B7806189BFF12C28
:1014C00090E8C92ED12C80919001882309F4A3C003
:1014D00040916B004F5F4F7180916A00481709F48B
:1014E0008FC000E010E0A0E0B0E8980183E0220F98
:1014F000331F8A95E1F7B901625F7E4FEB018A8164
:101500009B81892B09F46DC08C819D81E92FFF2778
:10151000EE2ED0E8DE1718F0EB018F8106C0EB014C
:101520008F81B6016E1B7F0BFB0190E061E870E0DC
:101530009AD48E0F9F1FFC01EE0FFF1FEC53FE4F3E
:1015400085919491F901E25FFE4F5681503159F136
:10155000552329F153FF04C0BC017695679502C05D
:1015600060E070E052FF07C0FC01F695E795F69544
:10157000E7956E0F7F1F51FF08C0FC01C3E0F69591
:10158000E795CA95E1F76E0F7F1F50FF0BC054E03F
:10159000969587955A95E1F7860F971F04C080E0CE
:1015A00090E001C0CB0170E87E1518F0A80FB91FBC
:1015B00002C0A81BB90BF901E25FFE4F81818F5F6A
:1015C000818391818081981720F011821582148285
:1015D00008C08281938124813581820F931F958376
:1015E00084830F5F1F4F0330110509F07ECFE42F76
:1015F000F0E0EF56FE4FB08340936B001F2D09C003
:1016000011E01F0D68E070E08F2D44DE133008F00C
:1016100010E0F12E58CF2FDC89B78F7E89BFDF9184
:10162000CF911F910F91FF90EF90DF90CF908DCDD4
:10163000CF92DF92EF92FF921F93CF93DF936B01D4
:101640007C0103DEC701B6014ED8811139C081E0AB
:1016500082D88FEFC81AD80AE80AF80A24D9182FB6
:10166000C0E0D0E0C11720F5C701B6013CD8811118
:1016700027C082E070D882E0C80ED11CE11CF11CAA
:101680001DD99C01CE0166E370E0EDD3FC01E45965
:10169000FF4FC7A2D0A6E1A6F2A6C90196958795ED
:1016A00094A783A7C20ED31EE11CF11C2196DACFAA
:1016B000DF91CF911F91FF90EF90DF90CF90E1CE1F
:1016C000DF91CF911F91FF90EF90DF90CF90089521
:1016D0001F920F920FB60F921124CF92DF92EF92CA
:1016E0000F931F932F933F934F935F936F937F932A
:1016F0008F939F93AF93BF93CF93DF93EF93FF931A
:10170000C0E0D0E01C2FCE0166E370E0ACD3FC015A
:10171000E459FF4F84A18111A1C083A594A5892B11
:1017200009F49CC0CE0166E370E09DD3DC01A459AE
:10173000BF4F94968C9194978111C4C092962D912D
:101740003C919397CE016BE170E08DD3820F931F94
:10175000FC01EE0FFF1FE459FF4F20813181E32F81
:10176000FF27E7FF40C0EF773197E830F10508F039
:1017700065C0ED5DFF4F0994CE0166E370E073D361
:1017800084599F4FFC0127A759C0CE0166E370E042
:101790006AD3FC01E459FF4F22AB4FC0CE0166E390
:1017A00070E061D3FC01E459FF4F24AB15AA46C099
:1017B000CE0166E370E057D384599F4FFC0120AB04
:1017C0003DC061E001C060E0822FFCDA37C0CE018D
:1017D00066E370E048D384599F4FFC0121AB2EC0D3
:1017E000109290012BC04E2FEE2321F0D0966C91D9
:1017F000462F4E0F2150CE0166E370E034D384595A
:101800009F4F6C01FC0124A3E1A807A5642F70E0A1
:10181000660F771FFB01EA5AFF4F25913491FB01B8
:10182000E053FF4F45915491FB01E65BFE4F6591FC
:101830007491812FE5DCF60115AA13AACE0166E3A7
:1018400070E011D3FC01E459FF4F22A133A12F5FB7
:101850003F4F2F70332733A322A364CFCE0166E31B
:1018600070E001D3FC01E459FF4F24A1215024A3CF
:1018700033A922A9321700F1DE0123E0AA0FBB1F12
:101880002A95E1F7A25FBE4F16962C911697222358
:10189000C9F035A924A9321740F015AA16968C91E3
:1018A0001697815016968C930DC025A92F5FFC01C9
:1018B000E459FF4F25AB06C023A92F5FFC01E45973
:1018C000FF4F23AB2196C330D10509F01BCFFF9109
:1018D000EF91DF91CF91BF91AF919F918F917F91C8
:1018E0006F915F914F913F912F911F910F91EF90C9
:1018F000DF90CF900F900FBE0F901F9018958F9292
:101900009F92AF92BF92CF92DF92EF92FF920F938E
:101910001F93DC01FB019081E92FF0E0EE0FFF1F28
:10192000E453FA4FE590F490870183E0169507950C
:101930008A95E1F720E030E042FF04C00E0D1F1D44
:10194000211D311DF694E79441FF04C00E0D1F1DAB
:10195000211D311D40FF06C0F694E7940E0D1F1D9A
:10196000211D311D43FF0CC0C12CD12C7601C39425
:1019700046015701801A910AA20AB30A950184010F
:10198000CD90DC9011970D2C000CEE08FF080C0D8B
:101990001D1D2E1D3F1D011580E81807210531056D
:1019A00064F40115E0E81E07EFEF2E073E074CF444
:1019B00000E010E82FEF3FEF04C00FEF1FE720E03B
:1019C00030E011961C930E9347708CEF840F843097
:1019D00020F0992341F0915006C04350440F940FDA
:1019E000993508F098E5FB0190838D919C911F91AA
:1019F0000F91FF90EF90DF90CF90BF90AF909F90AE
:101A00008F9008954F925F926F927F928F929F92E4
:101A1000AF92BF92CF92DF92EF92FF920F931F93FC
:101A2000CF93DF93CDB7DEB727970FB6F894DEBF1D
:101A30000FBECDBF58D68111C0C084E08CD684E0E3
:101A40008AD684E088D646D76B017C0120E1C21A91
:101A5000D108E108F10882E07ED630D75C0182E04F
:101A60007AD684E078D636D76C837D838E839F8345
:101A700084E071D682E06FD621D78C0182E06BD6EC
:101A8000C114D104E104F10411F08C2D64D684E07A
:101A900062D609D7863659F484E05DD61BD7862FE7
:101AA0005AD618D72B013C0184E055D603C0412CEF
:101AB000512C320184E04FD60DD76B017C018C8113
:101AC0009D8120DB81E08093900181E0A816B10424
:101AD000D1F091E1A916B10409F06EC0000F111FF9
:101AE000C80107976C014C01A12CB12C3CC0DBD67E
:101AF0001CDB1150E1F790E2C916D104E104F104B6
:101B000058F41092900180919001882309F454C0F8
:101B100080E221D610E2EBCF20E2C21AD108E10820
:101B2000F108F1CF84E017D6C9D69A838983BBD652
:101B30008B83481459046A047B04D0F48201401A50
:101B4000510A61087108015011098A818058EDDA43
:101B50000115110579F484E04816510461047104FB
:101B600010F410929001809190018111DBCF24C07C
:101B70008601E5CF80919001882369F381E0EBD560
:101B800092D6F82E482F4F70BE016D5F7F4FCE0169
:101B90000196B5DE80E8890FC8DA4F2D42954F7067
:101BA000BE016D5F7F4FCE010196A9DE80E8890FEF
:101BB000BCDA02501109CCCFC8DA27960FB6F894D8
:101BC000DEBF0FBECDBFDF91CF911F910F91FF9070
:101BD000EF90DF90CF90BF90AF909F908F907F90CD
:101BE0006F905F904F90089587B3856087BB88B3EF
:101BF000856088BB87B3856087BB8FEF8FB98AE22A
:101C00008DB980EF8EB908953FD184E076956795C0
:101C10008A95E1F770932C0160932B0170932A0150
:101C200060932901E1CF91E090932801880F809380
:101C3000B2010895E0912801E13240F491E09E0F55
:101C400090932801F0E0EE54FE4F80830895E091D8
:101C5000270181E08E0F80932701F0E0EE54FE4FC4
:101C6000808108958091260190912701891B089514
:101C7000009719F000000197FBCF0895CF93CBE2B6
:101C80008091290190912A01F3DFCDB9B29BFECF5B
:101C900080912B0190912C01EBDFCDB9769BF0CF99
:101CA0008091290190912A01E3DF8FB19FEF9FB9C5
:101CB000B89ACF910895C29AC29BFECF8091290114
:101CC00090912A01D5DFC09880912B0190912C0131
:101CD000CFDFC298C09A779905C083E08093B101A5
:101CE00080E0089581E00895C098C29AB29BFECF2B
:101CF00080912B0190912C01BBDFC09A809129012A
:101D000090912A01B5DF9EB1892F807295FD04C0A4
:101D100094E09093B101089581E00895AF92BF924D
:101D2000CF92DF92EF92FF920F931F93CF93DF93A7
:101D3000F82E1091280181E08093B1018091B201C9
:101D400080FD03C083E08093B101B5DF882349F1B2
:101D5000C2EBD1E080EFE82E0EEFBB24BA94AA24A8
:101D6000A3949091B10193709E012F5F3F4F690141
:101D7000992391F188818FB9B89AEEB87FDFB8982E
:101D80001FB80EB97BDF9091B10180FF0CC090FFAE
:101D900002C081E001C082E08093B101F11001C076
:101DA000A3DF90E034C0892F8570843089F41091CE
:101DB00028019091B20191609093B201A092B1017B
:101DC0007ADF982F811116C08AE08093B1011FC07D
:101DD0009E7F9093B1010CC0B898EEB84FDF888316
:101DE000113011F4BFB801C01FB8B89A0EB946DF60
:101DF000E60102C0C2EBD1E0115009F0B2CFF11000
:101E000005C072DF91E0811102C0CBCF91E0892F34
:101E1000DF91CF911F910F91FF90EF90DF90CF90C6
:101E2000BF90AF90089580E079DF10922801882359
:101E300011F080E008958091B101089591E09093B0
:101E400027016F5F60932601880F81608093B20144
:101E50006093280180E062DF811103C08091B101AD
:101E6000089580E008950024552704C0080E591FE6
:101E7000880F991F009729F076956795B8F371053B
:101E8000B9F7802D952F0895AA1BBB1B51E107C000
:101E9000AA1FBB1FA617B70710F0A61BB70B881FFA
:101EA000991F5A95A9F780959095BC01CD01089589
:101EB000E199FECF9FBB8EBBE09A99278DB3089521
:041EC000F894FFCFC4
:00000001FF
